:100000000C942A000C9447000C94FF190C944700A0
:100010000C94B5090C94E8090C9447000C941B0A45
:100020000C944E0A0C9447000C94810A0C94B40A68
:100030000C9447000C9447000C9447000C94470024
:100040000C9447000C9447000C9447000C94470014
:100050000C94470011241FBECFE5D4E0DEBFCDBF16
:1000600011E0A0E6B0E0E8E4F8E302C005900D92EC
:10007000A638B107D9F711E0A6E8B1E001C01D929A
:10008000AF39B107E1F70E94EA170C94221C0C94D7
:100090000000EF92FF920F931F937B018C0120E0F1
:1000A00030E040E05FE40E94250488238CF0C80122
:1000B000B70120E030E040E05FE40E94C1010E940F
:1000C000E3049B01AC01205030404040504806C042
:1000D000C801B7010E94E3049B01AC01B901CA0148
:1000E0001F910F91FF90EF900895A0E0B0E0EBE733
:1000F000F0E00C94EB1BDC012B01FA019C91923097
:1001000008F439C1EB018881823008F433C194309E
:1001100069F4843009F02FC111969C91119789815F
:10012000981709F428C1A0E6B0E025C1843009F48D
:1001300021C18230A9F4923009F01DC19A01AD01AC
:1001400088E0EA010990AE01E90109929E0181501F
:10015000C1F7E201898111969C918923818308C1AD
:10016000923009F407C112962D903C901397EB0141
:100170008A819B811496AD90BD90CD90DC901797AD
:10018000EC80FD800E811F819101281B390BB90184
:1001900037FF04C066277727621B730B6032710537
:1001A0000CF061C0121613066CF537014801062EDB
:1001B00004C096948794779467940A94D2F721E0C8
:1001C00030E040E050E004C0220F331F441F551FB1
:1001D0006A95D2F721503040404050402E213F21B7
:1001E00040235123211531054105510521F021E01E
:1001F00030E040E050E079018A01E628F72808293C
:1002000019293CC0232BD1F1260E371E350146019A
:10021000062E04C096948794779467940A94D2F734
:1002200021E030E040E050E004C0220F331F441FC3
:10023000551F6A95D2F721503040404050402A2146
:100240003B214C215D21211531054105510521F04E
:1002500021E030E040E050E059016A01A628B728CB
:10026000C828D9280BC0821593052CF01C01AA249C
:10027000BB24650103C0EE24FF24870111969C91E5
:10028000D20111968C91981709F445C0992339F041
:10029000A80197012A193B094C095D0906C0A6016E
:1002A00095012E193F09400B510B57FD08C01182D3
:1002B0003382228224833583468357831DC081E0A5
:1002C00081833382228288279927DC01821B930B4A
:1002D000A40BB50B84839583A683B7830DC0220F2F
:1002E000331F441F551F24833583468357838281E0
:1002F000938101979383828324813581468157813D
:10030000DA01C9010197A109B1098F5F9F4FAF4F72
:10031000BF4328F30BC0918333822282EA0CFB1C7B
:100320000C1D1D1DE482F5820683178383E0808304
:10033000248135814681578157FF1AC0C901AA27F8
:1003400097FDA095BA2F81709070A070B0705695EF
:10035000479537952795822B932BA42BB52B848318
:100360009583A683B7838281938101969383828349
:10037000DF0101C0D201CD01CDB7DEB7E2E10C94BF
:10038000071CA0E2B0E0E7ECF1E00C94F71B6983F6
:100390007A838B839C832D833E834F835887E9E048
:1003A000EE2EF12CEC0EFD1ECE010196B7010E943F
:1003B0005B068E010F5E1F4FCE010596B8010E94AD
:1003C0005B068A8991E089278A8BC701B801AE0153
:1003D000475E5F4F0E9475000E948605A096E6E08A
:1003E0000C94131CA0E2B0E0E8EFF1E00C94F71BD2
:1003F00069837A838B839C832D833E834F835887C5
:10040000F9E0EF2EF12CEC0EFD1ECE010196B701A6
:100410000E945B068E010F5E1F4FCE010596B8014C
:100420000E945B06C701B801AE01475E5F4F0E94A4
:1004300075000E948605A096E6E00C94131CA0E2CD
:10044000B0E0E5E2F2E00C94EB1B69837A838B83E6
:100450009C832D833E834F835887CE010196BE0136
:10046000675F7F4F0E945B06CE010596BE016F5EFF
:100470007F4F0E945B069985923088F0898982308F
:10048000C8F0943019F4823051F404C0843029F457
:10049000923081F480E690E0C6C0923049F420E0CA
:1004A0009A858A89981321E02A87CE010996BBC0D4
:1004B000823049F420E09A858A89981321E02A8BBA
:1004C000CE014196B0C02D843E844F8458886D88FB
:1004D0007E888F88988CEE24FF248701AA24BB2471
:1004E000650140E050E060E070E0E0E0F0E0C10174
:1004F00081709070892BE9F0E60CF71C081D191D1E
:100500009A01AB012A0D3B1D4C1D5D1D80E090E062
:10051000A0E0B0E0E614F7040805190520F481E036
:1005200090E0A0E0B0E0BA01A901480F591F6A1F8E
:100530007B1FAA0CBB1CCC1CDD1C97FE08C081E0F5
:1005400090E0A0E0B0E0A82AB92ACA2ADB2A3196B6
:10055000E032F10549F0660C771C881C991C569412
:10056000479437942794C3CFFA85EA892B893C892D
:100570008B859C85280F391F2E5F3F4F17C0CA01FE
:1005800081709070892B61F016950795F794E79428
:1005900080E090E0A0E0B0E8E82AF92A0A2B1B2BC3
:1005A00076956795579547952F5F3F4F77FDE7CF36
:1005B0000CC0440F551F661F771F17FD4160EE0CDE
:1005C000FF1C001F111F21503040403090E05907A0
:1005D00090E0690790E4790760F32B8F3C8FDB0193
:1005E000CA018F779070A070B07080349105A1051A
:1005F000B10561F447FD0AC0E114F10401051105DC
:1006000029F0405C5F4F6F4F7F4F40781A8EFE1786
:1006100011F081E08A8F4D8F5E8F6F8F78A383E01A
:10062000898FCE0149960E948605A096E2E10C943E
:10063000071CA8E1B0E0EFE1F3E00C94F31B698341
:100640007A838B839C832D833E834F835887B9E0C5
:10065000EB2EF12CEC0EFD1ECE010196B7010E948F
:100660005B068E010F5E1F4FCE010596B8010E94FA
:100670005B062985223008F47EC03989323010F4B7
:10068000B8017CC08A859A8989278A87243011F02D
:10069000223031F4231709F06EC060E670E06EC0BE
:1006A000343039F41D861E861F86188A1C861B86E8
:1006B00004C0323021F484E08987B7015FC02B8504
:1006C0003C858B899C89281B390B3C872B87ED84C3
:1006D000FE840F851889AD88BE88CF88D88CEA142F
:1006E000FB040C051D0540F4EE0CFF1C001F111F40
:1006F000215030403C872B8720E030E040E050E044
:1007000080E090E0A0E0B0E460E070E0EA14FB0478
:100710000C051D0540F0282B392B4A2B5B2BEA18C2
:10072000FB080C091D09B695A79597958795EE0CC2
:10073000FF1C001F111F6F5F7F4F6F31710531F775
:10074000DA01C9018F779070A070B0708034910584
:10075000A105B10561F427FD0AC0E114F10401050A
:10076000110529F0205C3F4F4F4F5F4F20782D87B8
:100770003E874F87588BBE01675F7F4FCB010E943A
:1007800086056896EAE00C940F1CA8E1B0E0EBEC5B
:10079000F3E00C94F71B69837A838B839C832D830E
:1007A0003E834F83588789E0E82EF12CEC0EFD1E26
:1007B000CE010196B7010E945B068E010F5E1F4FAE
:1007C000CE010596B8010E945B068985823040F013
:1007D0008989823028F0C701B8010E94D30601C080
:1007E00081E06896E6E00C94131CA8E1B0E0EBEF22
:1007F000F3E00C94F71B69837A838B839C832D83AE
:100800003E834F83588789E0E82EF12CEC0EFD1EC5
:10081000CE010196B7010E945B068E010F5E1F4F4D
:10082000CE010596B8010E945B068985823040F0B2
:100830008989823028F0C701B8010E94D30601C01F
:100840008FEF6896E6E00C94131CA8E1B0E0EBE2B1
:10085000F4E00C94F71B69837A838B839C832D834C
:100860003E834F83588789E0E82EF12CEC0EFD1E65
:10087000CE010196B7010E945B068E010F5E1F4FED
:10088000CE010596B8010E945B068985823040F052
:100890008989823028F0C701B8010E94D30601C0BF
:1008A0008FEF6896E6E00C94131CA8E1B0E0EBE54E
:1008B000F4E00C94F71B69837A838B839C832D83EC
:1008C0003E834F83588789E0E82EF12CEC0EFD1E05
:1008D000CE010196B7010E945B068E010F5E1F4F8D
:1008E000CE010596B8010E945B068985823040F0F2
:1008F0008989823028F0C701B8010E94D30601C05F
:1009000081E06896E6E00C94131CA8E0B0E0EBE808
:10091000F4E00C94F41B9B01AC0183E08983DA01C1
:10092000C9018827B7FD83959927AA27BB27B82E29
:10093000211531054105510519F482E089833AC03A
:100940008823A9F0203080E0380780E0480780E85D
:10095000580729F460E070E080E09FEC30C0EE249E
:10096000FF248701E21AF30A040B150B02C0790178
:100970008A018EE1C82ED12CDC82CB82ED82FE82F0
:100980000F831887C801B7010E9437050197181611
:10099000190684F4082E04C0EE0CFF1C001F111F62
:1009A0000A94D2F7ED82FE820F831887C81AD90AFB
:1009B000DC82CB82BA82CE0101960E9486052896FF
:1009C000E9E00C94101CACE0B0E0E9EEF4E00C942B
:1009D000FB1B69837A838B839C83CE010196BE01C6
:1009E0006B5F7F4F0E945B068D81823061F18230A8
:1009F00050F1843021F48E81882351F12EC02F8153
:100A0000388537FD20C06E812F3131051CF06623FB
:100A1000F9F023C08EE190E0821B930B29853A8583
:100A20004B855C8504C056954795379527958A95E3
:100A3000D2F76623B1F050954095309521953F4F00
:100A40004F4F5F4F0EC020E030E040E050E009C063
:100A50002FEF3FEF4FEF5FE704C020E030E040E0D2
:100A600050E8B901CA012C96E2E00C94171CEF92F1
:100A7000FF920F931F937B018C0180E0E81680E0CA
:100A8000F80681E0080780E0180788F48FEFE81681
:100A9000F1040105110531F028F088E090E0A0E0B4
:100AA000B0E017C080E090E0A0E0B0E012C080E0CD
:100AB000E81680E0F80680E0080781E0180728F0D3
:100AC00088E190E0A0E0B0E004C080E190E0A0E028
:100AD000B0E020E230E040E050E0281B390B4A0B48
:100AE0005B0B04C016950795F794E7948A95D2F7A7
:100AF000F701E859FF4F8081281B3109410951094D
:100B0000C9011F910F91FF90EF900895DF92EF922E
:100B1000FF920F931F93FC01E480F58006811781FB
:100B2000D1808081823048F480E090E0A0E1B0E0A4
:100B3000E82AF92A0A2B1B2BA5C0843009F49FC090
:100B4000823021F4EE24FF24870105C0E114F10472
:100B50000105110519F4E0E0F0E096C062817381AF
:100B60009FEF623879070CF05BC022E83FEF261B4D
:100B7000370B2A3131052CF020E030E040E050E026
:100B80002AC0B801A701022E04C076956795579533
:100B900047950A94D2F781E090E0A0E0B0E004C06D
:100BA000880F991FAA1FBB1F2A95D2F70197A10989
:100BB000B1098E219F21A023B1230097A105B10582
:100BC00021F081E090E0A0E0B0E09A01AB01282B99
:100BD000392B4A2B5B2BDA01C9018F779070A070FB
:100BE000B07080349105A105B10539F427FF09C023
:100BF000205C3F4F4F4F5F4F04C0215C3F4F4F4F32
:100C00005F4FE0E0F0E02030A0E03A07A0E04A07C4
:100C1000A0E45A0710F0E1E0F0E079018A0127C072
:100C20006038710564F5FB01E158FF4FD801C70139
:100C30008F779070A070B07080349105A105B105D8
:100C400039F4E7FE0DC080E490E0A0E0B0E004C01D
:100C50008FE390E0A0E0B0E0E80EF91E0A1F1B1F32
:100C600017FF05C016950795F794E794319687E02E
:100C700016950795F794E7948A95D1F705C0EE2469
:100C8000FF248701EFEFF0E06E2F679566276795E9
:100C9000902F9F77D794DD24D7948E2F8695492F58
:100CA000462B582F5D29B701CA011F910F91FF9064
:100CB000EF90DF900895FC01DB014081518122819A
:100CC000622F6F7770E0221F2227221F9381892FC6
:100CD000880F822B282F30E0991F9927991F119692
:100CE0009C93119721153105A9F541155105610511
:100CF000710511F482E037C082E89FEF13969C9350
:100D00008E9312979A01AB0167E0220F331F441FA5
:100D1000551F6A95D1F783E08C930DC0220F331FC6
:100D2000441F551F12968D919C911397019713960E
:100D30009C938E931297203080E0380780E048071C
:100D400080E4580758F314962D933D934D935C938C
:100D5000179708952F3F310579F441155105610525
:100D6000710519F484E08C93089564FF03C081E059
:100D70008C9312C01C9210C02F57304013963C9396
:100D80002E93129783E08C9387E0440F551F661FC4
:100D9000771F8A95D1F7706414964D935D936D9388
:100DA0007C93179708951F93DC01FB019C9192306F
:100DB00008F447C08081823008F443C0943051F475
:100DC00011961C91843099F58181682F70E0611B28
:100DD00071093FC0843021F0923031F48230B9F192
:100DE0008181882389F12DC011961C911197823041
:100DF000F1F081811817D9F412962D913C91139737
:100E0000828193818217930794F028173907BCF0E9
:100E100014968D919D910D90BC91A02D24813581CA
:100E200046815781281739074A075B0718F41123B1
:100E300041F00AC082179307A407B50740F41123B5
:100E400019F061E070E005C06FEF7FEF02C060E075
:100E500070E0CB011F910895DF93CF93CDB7DEB73C
:100E6000A7E3B0E0E7E3F0E08081806B8C93EDE2F4
:100E7000F0E080E18083ADE2B0E0EDE2F0E080817F
:100E800081608C93ADE2B0E0EDE2F0E080818064BF
:100E90008C93CF91DF910895DF93CF93CDB7DEB7D9
:100EA000A7E3B0E0E7E3F0E0808180648C93EDE2BB
:100EB000F0E01082ADE2B0E0EDE2F0E0808180642D
:100EC0008C93CF91DF910895DF93CF9300D0CDB76E
:100ED000DEB78A83EFE2F0E08A818083EEE2F0E021
:100EE0008081881F8827881F882F90E09070009746
:100EF000A9F3EEE2F0E080818983EFE2F0E0808107
:100F00000F900F90CF91DF910895DF93CF93CDB7DE
:100F1000DEB7ADE2B0E0EDE2F0E080818F7B8C9354
:100F2000CF91DF910895DF93CF9300D000D00F923F
:100F3000CDB7DEB78A836B8319828A81282F30E090
:100F40003D832C838C819D818130910591F02C8192
:100F50003D8122303105D1F18C819D810097E9F5E9
:100F6000A3E5B0E0E3E5F0E090818B81892B8C93E1
:100F700034C08B8181708983AFE4B0E0EFE4F0E0AE
:100F800090818981892B8C938B8182708983AFE4D6
:100F9000B0E0EFE4F0E090818981892B8C938B8124
:100FA00088708983AEE4B0E0EEE4F0E0908189815E
:100FB000892B8C938B8180718983AEE4B0E0EEE461
:100FC000F0E090818981892B8C9307C0A5E4B0E083
:100FD000E5E4F0E0808188648C930F900F900F908F
:100FE0000F900F90CF91DF9108950F93DF93CF93E0
:100FF000CDB7DEB727970FB6F894DEBF0FBECDBFD3
:1010000089837B836A835D834C832E830F83AFE464
:10101000B0E0EFE4F0E090818E81892B8C938F819A
:10102000813071F4AAE4B0E0EAE4F0E0208131819B
:101030008A819B81822B932B11969C938E9310C057
:101040008F81823069F4A8E4B0E0E8E4F0E0208128
:1010500031818A819B81822B932B11969C938E9355
:10106000A6E4B0E0E6E4F0E0208131818C819D814E
:10107000822B932B11969C938E93AEE4B0E0EEE41A
:10108000F0E090818981892B8C9327960FB6F89494
:10109000DEBF0FBECDBFCF91DF910F910895DF93DB
:1010A000CF9300D00F92CDB7DEB789838981282FE7
:1010B00030E03B832A838A819B818130910501F155
:1010C0002A813B812230310589F18A819B810097F9
:1010D00009F041C0A3E5B0E0E3E5F0E080818E7F58
:1010E0008C93A3E5B0E0E3E5F0E080818D7F8C9305
:1010F000A3E5B0E0E3E5F0E080818B7F8C932BC02B
:10110000AEE4B0E0EEE4F0E080818E7F8C93AEE45C
:10111000B0E0EEE4F0E080818D7F8C93AEE4B0E04F
:10112000EEE4F0E080818B7F8C9315C0A5E4B0E005
:10113000E5E4F0E080818E7F8C93A5E4B0E0E5E407
:10114000F0E080818D7F8C93A5E4B0E0E5E4F0E0F1
:1011500080818B7F8C930F900F900F90CF91DF91B8
:101160000895DF93CF930F92CDB7DEB7898389813E
:10117000882F90E08A30910569F4A3E5B0E0E3E5BB
:10118000F0E0808183608C93A3E5B0E0E3E5F0E0DC
:1011900080818C930F90CF91DF910895DF93CF934F
:1011A00000D00F92CDB7DEB789838981282F30E038
:1011B0003B832A838A819B818A30910581F02A8131
:1011C0003B812A30310514F18A819B818B30910556
:1011D00071F02A813B812C30310589F017C0A9E5D7
:1011E000B0E0E9E5F0E0808181608C930FC0A9E573
:1011F000B0E0E9E5F0E0808181608C9307C0A9E56B
:10120000B0E0E9E5F0E0808181608C930F900F9071
:101210000F90CF91DF910895DF93CF93CDB7DEB7D5
:101220002C970FB6F894DEBF0FBECDBF89836A83BB
:101230005C834B838981282F30E03C872B878B850B
:101240009C858A30910591F02B853C852A303105AB
:101250000CF482C08B859C858B30910529F12B8500
:101260003C852C30310509F45BC076C08A81282F7B
:1012700030E03A87298789859A858730910531F052
:1012800029853A852830310541F066C08B819C81E3
:1012900090939501809394015FC08B819C81909382
:1012A00097018093960158C08A81282F30E03887B3
:1012B0002F838F81988584309105E9F02F813885BF
:1012C0002530310534F48F8198858330910561F0A4
:1012D00043C02F81388525303105A1F08F81988555
:1012E00086309105B1F038C08B819C8190938D013F
:1012F00080938C0131C08B819C8190938F0180936E
:101300008E012AC08B819C819093910180939001E2
:1013100023C08B819C8190939701809396011CC080
:101320008A81282F30E03E832D838D819E81009716
:1013300031F02D813E812130310541F00DC08B818E
:101340009C81909389018093880106C08B819C8148
:1013500090938B0180938A012C960FB6F894DEBF90
:101360000FBECDBFCF91DF9108951F920F920FB6A0
:101370000F9211242F933F934F935F936F937F931B
:101380008F939F93AF93BF93EF93FF93DF93CF938D
:10139000CDB7DEB78091880190918901009729F03F
:1013A000E0918801F09189010995CF91DF91FF913A
:1013B000EF91BF91AF919F918F917F916F915F91CD
:1013C0004F913F912F910F900FBE0F901F90189546
:1013D0001F920F920FB60F9211242F933F934F93AA
:1013E0005F936F937F938F939F93AF93BF93EF938D
:1013F000FF93DF93CF93CDB7DEB780918A019091B1
:101400008B01009729F0E0918A01F0918B010995F9
:10141000CF91DF91FF91EF91BF91AF919F918F910C
:101420007F916F915F914F913F912F910F900FBEE0
:101430000F901F9018951F920F920FB60F921124C4
:101440002F933F934F935F936F937F938F939F93CC
:10145000AF93BF93EF93FF93DF93CF93CDB7DEB7F7
:1014600080918E0190918F01009729F0E0918E017B
:10147000F0918F010995CF91DF91FF91EF91BF918D
:10148000AF919F918F917F916F915F914F913F911C
:101490002F910F900FBE0F901F9018951F920F92D3
:1014A0000FB60F9211242F933F934F935F936F9337
:1014B0007F938F939F93AF93BF93EF93FF93DF93AC
:1014C000CF93CDB7DEB780919001909191010097B5
:1014D00029F0E0919001F09191010995CF91DF9170
:1014E000FF91EF91BF91AF919F918F917F916F91FC
:1014F0005F914F913F912F910F900FBE0F901F90D2
:1015000018951F920F920FB60F9211242F933F93AD
:101510004F935F936F937F938F939F93AF93BF93FB
:10152000EF93FF93DF93CF93CDB7DEB78091940114
:1015300090919501009729F0E0919401F091950127
:101540000995CF91DF91FF91EF91BF91AF919F915D
:101550008F917F916F915F914F913F912F910F905C
:101560000FBE0F901F9018951F920F920FB60F92FB
:1015700011242F933F934F935F936F937F938F9398
:101580009F93AF93BF93EF93FF93DF93CF93CDB729
:10159000DEB78091960190919701009729F0E09134
:1015A0009601F09197010995CF91DF91FF91EF910D
:1015B000BF91AF919F918F917F916F915F914F916B
:1015C0003F912F910F900FBE0F901F901895DF93B2
:1015D000CF93CDB7DEB7EFE5F0E080E88083CF9121
:1015E000DF910895DF93CF93CDB7DEB7AFE5B0E0DD
:1015F000EFE5F0E080818F778C93CF91DF910895B4
:10160000DF93CF9300D000D00F92CDB7DEB78A839F
:101610006B8319828A81833018F48B81843018F0AF
:1016200081E0898396C08A81282F30E03D832C8316
:101630008C819D8181309105E9F12C813D812230A1
:10164000310509F469C08C819D81009709F07FC044
:101650008B81882339F4E5E5F0E0A5E5B0E08C91D5
:10166000808320C08B81813041F4A5E5B0E0E5E5C1
:10167000F0E0808181608C9315C08B81823041F4D1
:10168000A5E5B0E0E5E5F0E0808182608C930AC0DA
:101690008B81833039F4A5E5B0E0E5E5F0E08081A9
:1016A00083608C93ABE5B0E0EBE5F0E08081806493
:1016B0008C934DC08B81882339F4E5E5F0E0A5E5F6
:1016C000B0E08C91808320C08B81813041F4A5E50E
:1016D000B0E0E5E5F0E0808184608C9315C08B81FB
:1016E000823041F4A5E5B0E0E5E5F0E08081886076
:1016F0008C930AC08B81833039F4A5E5B0E0E5E531
:10170000F0E080818C608C93ABE5B0E0EBE5F0E03D
:10171000808180688C931BC08B81823039F4E5E531
:10172000F0E0A5E5B0E08C9180830AC08B81833026
:1017300039F4A5E5B0E0E5E5F0E0808180648C93C4
:10174000ABE5B0E0EBE5F0E0808180628C930E9435
:10175000E70A89810F900F900F900F900F90CF9113
:10176000DF910895DF93CF9300D000D0CDB7DEB7DF
:101770008A8319828A81833018F081E089832AC0A4
:101780008A81282F30E03C832B838B819C818130A0
:10179000910589F02B813C8122303105A1F08B81AC
:1017A0009C810097B9F4ABE5B0E0EBE5F0E0808117
:1017B0008F7B8C930FC0ABE5B0E0EBE5F0E0808170
:1017C0008F778C9307C0ABE5B0E0EBE5F0E080816C
:1017D0008F7D8C9389810F900F900F900F90CF91F8
:1017E000DF910895DF93CF9300D00F92CDB7DEB78E
:1017F0009A8389836B83ECE3F0E08081882F90E00B
:10180000827090700097B9F7EEE3F0E089819A81D9
:1018100091838083EDE3F0E08B818083ACE3B0E0E3
:10182000ECE3F0E0808184608C93ACE3B0E0ECE327
:10183000F0E0808182608C930F900F900F90CF9199
:10184000DF910895DF93CF9300D0CDB7DEB79A83B1
:101850008983ECE3F0E08081882F90E082709070C3
:101860000097B9F7EEE3F0E089819A819183808354
:10187000ACE3B0E0ECE3F0E0808181608C93EDE3D9
:10188000F0E080810F900F90CF91DF910895DF936A
:10189000CF93CDB7DEB7EAE3F0E08EEF8083E7E3E6
:1018A000F0E08FEF8083E4E3F0E08FEF8083E1E30B
:1018B000F0E086EF8083EBE3F0E081E08083E8E313
:1018C000F0E01082E5E3F0E08FEF8083E2E3F0E008
:1018D00088E08083CF91DF910895DF93CF93CDB7D8
:1018E000DEB72E970FB6F894DEBF0FBECDBF8A834A
:1018F0006B834C8319828A81843030F48B818830E9
:1019000018F48C81823018F081E08983D7C08A81F5
:10191000282F30E03E872D878D859E85813091056B
:1019200009F444C02D853E85223031052CF48D8587
:101930009E85009771F0C2C02D853E85223031050D
:1019400009F462C08D859E858330910509F489C0B4
:10195000B5C08C818130A9F4ABE3B0E0EBE3F0E0FB
:101960008081482F8B81282F30E081E090E0022E8B
:1019700002C0880F991F0A94E2F7842B8C939C91E4
:101980009DC0ABE3B0E0EBE3F0E08081482F8B81BA
:10199000282F30E081E090E002C0880F991F2A953F
:1019A000E2F7809584238C932C9188C08C818130C0
:1019B000A9F4A8E3B0E0E8E3F0E08081482F8B8150
:1019C000282F30E081E090E0022E02C0880F991F9E
:1019D0000A94E2F7842B8C933C9170C0A8E3B0E0AA
:1019E000E8E3F0E08081482F8B81282F30E081E010
:1019F00090E0022E02C0880F991F0A94E2F78095AA
:101A000084238C938C915AC08C818130A9F4A5E3F6
:101A1000B0E0E5E3F0E08081482F8B81282F30E0B3
:101A200081E090E0022E02C0880F991F0A94E2F72D
:101A3000842B8C939C9142C0A5E3B0E0E5E3F0E0F9
:101A40008081482F8B81282F30E081E090E002C018
:101A5000880F991F2A95E2F7809584238C932C9107
:101A60002DC08C818130A9F4A2E3B0E0E2E3F0E084
:101A70008081482F8B81282F30E081E090E0022E7A
:101A800002C0880F991F0A94E2F7842B8C933C9133
:101A900015C0A2E3B0E0E2E3F0E08081482F8B8143
:101AA000282F30E081E090E0022E02C0880F991FBD
:101AB0000A94E2F7809584238C938C9189812E96E9
:101AC0000FB6F894DEBF0FBECDBFCF91DF91089562
:101AD000DF93CF9300D000D00F92CDB7DEB78A83CB
:101AE0006B8319828A81282F30E03D832C838C817F
:101AF0009D8181309105D1F02C813D8122303105CD
:101B00002CF48C819D81009761F01EC02C813D8159
:101B10002230310581F08C819D818330910581F0E7
:101B200013C0EBE3F0E08B8180830EC0E8E3F0E0CC
:101B30008B81808309C0E5E3F0E08B81808304C062
:101B4000E2E3F0E08B81808389810F900F900F900A
:101B50000F900F90CF91DF910895DF93CF93CDB782
:101B6000DEB727970FB6F894DEBF0FBECDBF8A83CE
:101B70006B835D834C8319828A81843038F48B8136
:101B8000883020F48C819D81009719F481E089834D
:101B900070C08A81282F30E03F832E834E815F8181
:101BA0004130510559F18E819F818230910534F485
:101BB0002E813F812115310569F05BC04E815F8127
:101BC0004230510579F18E819F818330910509F46E
:101BD0003DC04FC0E9E3F0E08081282F30E08B81E9
:101BE000882F90E0A90102C0559547958A95E2F7A4
:101BF000CA018170EC81FD8180833BC0E6E3F0E0A7
:101C00008081282F30E08B81882F90E0A90102C0CD
:101C1000559547958A95E2F7CA018170EC81FD815F
:101C2000808327C0E3E3F0E08081282F30E08B81C0
:101C3000882F90E0A90102C0559547958A95E2F753
:101C4000CA018170EC81FD81808313C0E0E3F0E084
:101C50008081282F30E08B81882F90E0A90102C07D
:101C6000559547958A95E2F7CA018170EC81FD810F
:101C70008083898127960FB6F894DEBF0FBECDBF53
:101C8000CF91DF910895DF93CF9300D000D000D0A3
:101C9000CDB7DEB78A837C836B8319828A81282F34
:101CA00030E03E832D838D819E8181309105E1F06E
:101CB0002D813E81223031052CF48D819E8100974B
:101CC00061F026C02D813E8122303105A1F08D8149
:101CD0009E8183309105B1F01BC0E9E3F0E0808183
:101CE000EB81FC81808314C0E6E3F0E08081EB812E
:101CF000FC8180830DC0E3E3F0E08081EB81FC8117
:101D0000808306C0E0E3F0E08081EB81FC8180838A
:101D1000898126960FB6F894DEBF0FBECDBFCF9156
:101D2000DF910895DF93CF9300D000D0CDB7DEB719
:101D300089836A834B832C83A7E2B0E0E7E2F0E07B
:101D400090818981892B8C93A7E2B0E0E7E2F0E0F3
:101D500090818B81892B8C93A6E2B0E0E6E2F0E0E3
:101D6000808180688C938A81803239F4A7E2B0E068
:101D7000E7E2F0E0808180628C93A6E2B0E0E6E2E8
:101D8000F0E090818C81892B8C930F900F900F90B5
:101D90000F90CF91DF910895DF93CF9300D0CDB70F
:101DA000DEB79A838983A6E2B0E0E6E2F0E08081C4
:101DB00080648C93E6E2F0E08081882F90E080716F
:101DC0009070959587959595879595958795959517
:101DD00087958130910571F3A6E2B0E0E6E2F0E08C
:101DE000808180618C93E4E2F0E08081882F90E034
:101DF000E981FA8191838083E981FA8120813181AF
:101E0000E5E2F0E08081882F90E0982F8827822BF0
:101E1000932BE981FA81918380830F900F90CF916A
:101E2000DF910895DF93CF93CDB7DEB70E94470CC3
:101E3000CF91DF9108958F92AF92CF92EF920F934F
:101E4000DF93CF93CDB7DEB7AA970FB6F894DEBF76
:101E50000FBECDBF6E8F7F8F88A399A34AA32BA3FC
:101E60000CA3EDA2CEA2AFA288A61D8E8AA1282F18
:101E700030E03AA729A789A59AA5009739F029A5A6
:101E80003AA52130310509F4EBC0D3C16E8D7F8DA9
:101E900088A199A120E030E040E050E00E94C50315
:101EA0008823A9F48BA16CA140E00E946D0C8DA148
:101EB0006EA141E00E946D0C8FA168A541E00E94D7
:101EC0006D0C8CA96DA940E00E946D0CB2C16E8DA5
:101ED0007F8D88A199A120E030E044EB52E40E947C
:101EE000C5038823A9F48BA16CA140E00E946D0C6E
:101EF0008DA16EA140E00E946D0C8FA168A541E00C
:101F00000E946D0C8CA96DA941E00E946D0C91C1DD
:101F10006E8D7F8D88A199A120E030E044E353E4E9
:101F20000E94C503882309F084C18BA16CA140E005
:101F30000E946D0C8DA16EA140E00E946D0C8FA1DE
:101F400068A541E00E946D0C8CA96DA941E00E943A
:101F50006D0C80E090E0A0E2B1E4898F9A8FAB8FA6
:101F6000BC8F698D7A8D8B8D9C8D20E030E04AE7A7
:101F700053E40E941F02DC01CB018D8B9E8BAF8B43
:101F8000B88F6D897E898F89988D20E030E040E898
:101F90005FE30E94550488232CF481E090E09C8B41
:101FA0008B8B3FC06D897E898F89988D20E03FEFB4
:101FB0004FE757E40E94F50318164CF5698D7A8DAA
:101FC0008B8D9C8D20E030E040E251E40E941F02A6
:101FD000DC01CB01BC01CD010E944900DC01CB0139
:101FE0009C8B8B8B0FC089E190E09A8B898B8989C0
:101FF0009A890197F1F79A8B898B8B899C89019734
:102000009C8B8B8B8B899C89009769F714C06D8999
:102010007E898F89988D0E944900DC01CB019C8BC1
:102020008B8B8B899C89988B8F878F85988901975B
:10203000F1F7988B8F878BA16CA141E00E946D0C0A
:102040008DA16EA140E00E946D0C8FA168A540E0BB
:102050000E946D0C8CA96DA941E00E946D0CE9C035
:102060006E8D7F8D88A199A120E030E040E050E0A6
:102070000E94C5038823A9F48CA96DA940E00E94A1
:102080006D0C8FA168A541E00E946D0C8DA16EA121
:1020900041E00E946D0C8BA16CA140E00E946D0C90
:1020A000C8C06E8D7F8D88A199A120E030E044EBFF
:1020B00052E40E94C5038823A9F48CA96DA940E0CD
:1020C0000E946D0C8FA168A540E00E946D0C8DA14F
:1020D0006EA141E00E946D0C8BA16CA141E00E94B9
:1020E0006D0CA7C06E8D7F8D88A199A120E030E096
:1020F00044E353E40E94C503882309F09AC08CA9E5
:102100006DA940E00E946D0C8FA168A540E00E947F
:102110006D0C8DA16EA141E00E946D0C8BA16CA194
:1021200041E00E946D0C80E090E0A0E2B1E48B877A
:102130009C87AD87BE876B857C858D859E8520E0DD
:1021400030E04AE753E40E941F02DC01CB018F8399
:102150009887A987BA876F81788589859A8520E0D5
:1021600030E040E85FE30E94550488232CF481E0CE
:1021700090E09E838D833FC06F81788589859A85A5
:1021800020E03FEF4FE757E40E94F50318164CF5A7
:102190006B857C858D859E8520E030E040E251E4B2
:1021A0000E941F02DC01CB01BC01CD010E9449004D
:1021B000DC01CB019E838D830FC089E190E09C837D
:1021C0008B838B819C810197F1F79C838B838D811D
:1021D0009E8101979E838D838D819E81009769F7F3
:1021E00014C06F81788589859A850E944900DC0139
:1021F000CB019E838D838D819E819A838983898182
:102200009A810197F1F79A8389838CA96DA941E09E
:102210000E946D0C8FA168A540E00E946D0C8DA1FD
:102220006EA140E00E946D0C8BA16CA141E00E9468
:102230006D0C8D8DAA960FB6F894DEBF0FBECDBF84
:10224000CF91DF910F91EF90CF90AF908F90089545
:10225000DF93CF9300D00F92CDB7DEB7898389810A
:10226000282F30E03B832A838A819B81813091052E
:1022700031F02A813B812230310531F009C081E003
:102280006AE10E94930704C081E06AE10E9493071B
:102290000F900F900F90CF91DF9108950F93DF93E0
:1022A000CF93CDB7DEB729970FB6F894DEBF0FBE38
:1022B000CDBF8C836D831B828C81853B18F48D810F
:1022C000843018F081E08B8372C08C81882F90E07D
:1022D00086509F4F9A8389838D81813091F58C81BF
:1022E000282F30E039872887888599858A35910598
:1022F000A1F028853985243B3105C9F08885998569
:10230000009709F054C083E065E070E047E853E1CE
:1023100020E801E00E94F5074AC083E06FE170E029
:1023200047E853E120E801E00E94F50740C083E060
:102330006FE170E047E853E120E801E00E94F50713
:1023400036C08D81823089F58C81282F30E03F8323
:102350002E838E819F818A35910599F02E813F8150
:10236000243B3105C1F08E819F81009701F583E008
:1023700065E070E047E853E120E202E00E94F507E3
:1023800016C083E06FE170E047E853E120E202E02D
:102390000E94F5070CC083E06FE170E047E853E16D
:1023A00020E202E00E94F50702C081E08B838B816E
:1023B00029960FB6F894DEBF0FBECDBFCF91DF9147
:1023C0000F910895DF93CF93CDB7DEB70E94470CEE
:1023D000CF91DF910895DF93CF9300D0CDB7DEB7D3
:1023E00089836A8389816A8140E00E946D0C0F9025
:1023F0000F90CF91DF910895DF93CF9300D0CDB7A9
:10240000DEB789836A8389816A8141E00E946D0C0D
:102410000F900F90CF91DF910895DF93CF93CDB7B9
:10242000DEB70E94470CCF91DF910895DF93CF93E1
:1024300000D00F92CDB7DEB78A836B8319828A8171
:10244000843018F48B81883018F081E0898305C0CE
:102450008A816B8141E00E946D0C89810F900F9001
:102460000F90CF91DF910895DF93CF9300D00F921B
:10247000CDB7DEB78A836B8319828A81843018F4E2
:102480008B81883018F081E0898305C08A816B8157
:1024900040E00E946D0C89810F900F900F90CF91BA
:1024A000DF910895DF93CF9300D000D000D0CDB757
:1024B000DEB78B836C8319828B81843018F48C8116
:1024C000883018F081E0898322C09E012E5F3F4F43
:1024D0008B816C81A9010E94AD0D8A81282F30E08B
:1024E0003E832D838D819E81009731F02D813E8129
:1024F0002130310539F00BC08B816C8141E00E94A5
:102500006D0C05C08B816C8140E00E946D0C89814F
:1025100026960FB6F894DEBF0FBECDBFCF91DF91E8
:102520000895DF93CF93CDB7DEB7E8970FB6F89451
:10253000DEBF0FBECDBF0E94470C80E090E0A0E060
:10254000B2E48DAB9EABAFABB8AF6DA97EA98FA93E
:1025500098AD20E030E04AE753E40E941F02DC011E
:10256000CB0189AB9AABABABBCAB69A97AA98BA900
:102570009CA920E030E040E85FE30E9455048823F6
:102580002CF481E090E098AB8FA73FC069A97AA9AD
:102590008BA99CA920E03FEF4FE757E40E94F50389
:1025A00018164CF56DA97EA98FA998AD20E030E0F2
:1025B00040E251E40E941F02DC01CB01BC01CD01CD
:1025C0000E944900DC01CB0198AB8FA70FC089E1C5
:1025D00090E09EA78DA78DA59EA50197F1F79EA7D8
:1025E0008DA78FA598A9019798AB8FA78FA598A9BC
:1025F000009769F714C069A97AA98BA99CA90E94C0
:102600004900DC01CB0198AB8FA78FA598A99CA7A7
:102610008BA78BA59CA50197F1F79CA78BA788E3B7
:102620000E94941480E090E0A0E8BFE38FA398A7F5
:10263000A9A7BAA76FA178A589A59AA520E030E03F
:102640004AE753E40E941F02DC01CB018BA39CA349
:10265000ADA3BEA36BA17CA18DA19EA120E030E023
:1026600040E85FE30E94550488232CF481E090E069
:102670009AA389A33FC06BA17CA18DA19EA120E05C
:102680003FEF4FE757E40E94F50318164CF56FA192
:1026900078A589A59AA520E030E040E251E40E94A7
:1026A0001F02DC01CB01BC01CD010E944900DC010D
:1026B000CB019AA389A30FC089E190E098A38F8FE3
:1026C0008F8D98A10197F1F798A38F8F89A19AA177
:1026D00001979AA389A389A19AA1009769F714C0C9
:1026E0006BA17CA18DA19EA10E944900DC01CB01C0
:1026F0009AA389A389A19AA19E8F8D8F8D8D9E8D7E
:102700000197F1F79E8F8D8F8EE00E94941480E0E8
:1027100090E0A0E8BFE3898F9A8FAB8FBC8F698D63
:102720007A8D8B8D9C8D20E030E04AE753E40E9447
:102730001F02DC01CB018D8B9E8BAF8BB88F6D8917
:102740007E898F89988D20E030E040E85FE30E9429
:10275000550488232CF481E090E09C8B8B8B3FC048
:102760006D897E898F89988D20E03FEF4FE757E490
:102770000E94F50318164CF5698D7A8D8B8D9C8D12
:1027800020E030E040E251E40E941F02DC01CB0176
:10279000BC01CD010E944900DC01CB019C8B8B8BDD
:1027A0000FC089E190E09A8B898B89899A8901977A
:1027B000F1F79A8B898B8B899C8901979C8B8B8BEA
:1027C0008B899C89009769F714C06D897E898F89F0
:1027D000988D0E944900DC01CB019C8B8B8B8B89EF
:1027E0009C89988B8F878F8598890197F1F7988BB3
:1027F0008F8780E090E0A0E0B0E48B879C87AD8776
:10280000BE876B857C858D859E8520E030E04AE71C
:1028100053E40E941F02DC01CB018F839887A987B4
:10282000BA876F81788589859A8520E030E040E815
:102830005FE30E94550488232CF481E090E09E839E
:102840008D833FC06F81788589859A8520E03FEF31
:102850004FE757E40E94F50318164CF56B857C850D
:102860008D859E8520E030E040E251E40E941F0209
:10287000DC01CB01BC01CD010E944900DC01CB0190
:102880009E838D830FC089E190E09C838B838B8135
:102890009C810197F1F79C838B838D819E810197A9
:1028A0009E838D838D819E81009769F714C06F810F
:1028B000788589859A850E944900DC01CB019E8339
:1028C0008D838D819E819A83898389819A810197E5
:1028D000F1F79A83898386E00E949414E8960FB6F4
:1028E000F894DEBF0FBECDBFCF91DF910895DF9387
:1028F000CF9300D0CDB7DEB78A83198283E060E042
:1029000041E00E946D0C83E061E040E00E946D0CAC
:1029100082E06A810E94680D0E944F1689810F90A3
:102920000F90CF91DF910895DF93CF9300D0CDB773
:10293000DEB78A83198283E060E040E00E946D0C7C
:1029400083E061E040E00E946D0C82E06A810E94B9
:10295000680D0E944F1689810F900F90CF91DF91E3
:102960000895DF93CF9300D00F92CDB7DEB79B834E
:102970008A8319828A819B81009769F481E0898327
:102980000FC0EA81FB8180810E9477148A819B813C
:1029900001969B838A83EA81FB818081882389F762
:1029A00089810F900F900F90CF91DF910895DF9361
:1029B000CF9300D000D00F92CDB7DEB78A836B8360
:1029C00019828A81823018F48B81803118F081E07D
:1029D000898319C08A81282F30E03D832C838C8124
:1029E0009D81009731F02C813D812130310531F0FE
:1029F0000AC08B8180580E94941405C08B81805C32
:102A000080680E94941489810F900F900F900F900E
:102A10000F90CF91DF910895DF93CF93CDB7DEB7BD
:102A200065970FB6F894DEBF0FBECDBF9A8B898B2A
:102A30006B8B4C8B2D8B188A89899A89009749F06A
:102A40008B89883030F48C89823018F48D898031FC
:102A500018F081E0888B99C08B89882F90E00896C8
:102A6000880F991F880F991F880F991F0E9494142F
:102A70001F8680C08F85282F30E089899A89FC01C4
:102A8000E20FF31F80810E94771480E090E0A0EABB
:102A9000B0E48B879C87AD87BE876B857C858D85F1
:102AA0009E8520E030E04AE753E40E941F02DC01EB
:102AB000CB018F839887A987BA876F8178858985AD
:102AC0009A8520E030E040E85FE30E9455048823C7
:102AD0002CF481E090E09E838D833FC06F817885E8
:102AE00089859A8520E03FEF4FE757E40E94F50380
:102AF00018164CF56B857C858D859E8520E030E031
:102B000040E251E40E941F02DC01CB01BC01CD0177
:102B10000E944900DC01CB019E838D830FC089E1B7
:102B200090E09C838B838B819C810197F1F79C8340
:102B30008B838D819E8101979E838D838D819E8164
:102B4000009769F714C06F81788589859A850E94FE
:102B50004900DC01CB019E838D838D819E819A8308
:102B6000898389819A810197F1F79A8389838F8577
:102B70008F5F8F878F85883008F47CCF8C896D8933
:102B80000E94D7148B890E947714888965960FB6A6
:102B9000F894DEBF0FBECDBFCF91DF9108950F93A4
:102BA0001F93DF93CF93CDB7DEB760970FB6F8943E
:102BB000DEBF0FBECDBF6D877E878F87988B8D85DB
:102BC0009E85AF85B8890097A105B10521F48D8553
:102BD000805D0E9477148AE0FE013396DF01982F12
:102BE0001D929A95E9F781E08A8319822DC08A8126
:102BF000082F10E08D859E85AF85B8892AE030E0EA
:102C000040E050E0BC01CD010E94C91BDC01CB01BA
:102C1000282FCE010396FC01E00FF11F20838D8544
:102C20009E85AF85B8892AE030E040E050E0BC01E5
:102C3000CD010E94C91BDA01C9018D879E87AF872C
:102C4000B88B8A818F5F8A838D859E85AF85B88991
:102C50000097A105B10559F68A8181508A838A813E
:102C600089830FC08981282F30E0CE010396FC01B3
:102C7000E20FF31F8081805D0E947714898181506B
:102C800089838981882371F760960FB6F894DEBF37
:102C90000FBECDBFCF91DF911F910F910895DF93AC
:102CA000CF93CDB7DEB72E970FB6F894DEBF0FBE29
:102CB000CDBF83E062E041E00E946D0C80E090E0D7
:102CC000A0E8BFE38B879C87AD87BE876B857C853B
:102CD0008D859E8520E030E04AE753E40E941F0284
:102CE000DC01CB018F839887A987BA876F817885AC
:102CF00089859A8520E030E040E85FE30E94550432
:102D000088232CF481E090E09E838D833FC06F8107
:102D1000788589859A8520E03FEF4FE757E40E9448
:102D2000F50318164CF56B857C858D859E8520E016
:102D300030E040E251E40E941F02DC01CB01BC0103
:102D4000CD010E944900DC01CB019E838D830FC021
:102D500089E190E09C838B838B819C810197F1F7C3
:102D60009C838B838D819E8101979E838D838D8132
:102D70009E81009769F714C06F81788589859A854F
:102D80000E944900DC01CB019E838D838D819E8151
:102D90009A83898389819A810197F1F79A8389833C
:102DA00083E062E040E00E946D0C2E960FB6F8942E
:102DB000DEBF0FBECDBFCF91DF910895DF93CF93DC
:102DC000CDB7DEB70E94470CCF91DF910895DF9316
:102DD000CF93CDB7DEB764970FB6F894DEBF0FBEC2
:102DE000CDBF9C8B8B8B198A8B899C89009719F49A
:102DF00081E0898BE5C01F86DFC08F85882F90E03A
:102E0000880F991FFC01E158FE4F20818F85882F84
:102E100090E0880F991FFC01E058FE4F9081822FAF
:102E2000692F40E00E946D0C188AA8C08889882FFD
:102E300090E0880F991FFC01E958FE4F4081888976
:102E4000882F90E0880F991FFC01E858FE4F908171
:102E50009E012E5E3F4F842F692FA9010E94AD0D68
:102E60008A89882309F087C08889282F30E08F85D8
:102E7000482F50E0C901880F991F820F931F840FBC
:102E8000951FFC01E559FE4F8081EB89FC89808309
:102E900080E090E0A0E7B1E48B879C87AD87BE8798
:102EA0006B857C858D859E8520E030E04AE753E484
:102EB0000E941F02DC01CB018F839887A987BA8704
:102EC0006F81788589859A8520E030E040E85FE36E
:102ED0000E94550488232CF481E090E09E838D832A
:102EE0003FC06F81788589859A8520E03FEF4FE765
:102EF00057E40E94F50318164CF56B857C858D858B
:102F00009E8520E030E040E251E40E941F02DC0197
:102F1000CB01BC01CD010E944900DC01CB019E83A5
:102F20008D830FC089E190E09C838B838B819C8192
:102F30000197F1F79C838B838D819E8101979E83FE
:102F40008D838D819E81009769F71CC06F81788584
:102F500089859A850E944900DC01CB019E838D837F
:102F60008D819E819A83898389819A810197F1F766
:102F70009A83898307C088898F5F888B888984308A
:102F800008F454CF8F85882F90E0880F991FFC019B
:102F9000E158FE4F20818F85882F90E0880F991F80
:102FA000FC01E058FE4F9081822F692F41E00E9482
:102FB0006D0C8F858F5F8F878F85833008F41DCFD1
:102FC000898964960FB6F894DEBF0FBECDBFCF914E
:102FD000DF910895DF93CF9300D000D000D0CDB71C
:102FE000DEB71C821B821A8219820E944C070E9443
:102FF0000D120E94120F80E460E040E026E00E9483
:10300000920E8AE00E94B1088AE00E94CE0822E671
:1030100039E18AE068E0A9010E940C0981E061E0E1
:103020000E94000B8FEF0E946407809368018091DB
:103030006801282F30E03E832D838D819E818F3162
:10304000910509F4EBC02D813E81203231058CF5CC
:103050008D819E818630910509F49FC02D813E812E
:10306000273031059CF48D819E818230910509F4D1
:1030700078C02D813E812330310509F47FC08D81D8
:103080009E818130910509F451C0CCCF2D813E81C4
:103090002C30310509F49FC08D819E818F309105C0
:1030A00009F4A8C02D813E812930310509F484C07E
:1030B000B9CF8D819E818F35910509F4E8C02D81AE
:1030C0003E81203631059CF48D819E818F339105A0
:1030D00009F4C8C02D813E812F34310509F4D2C0D6
:1030E0008D819E818F32910509F4A8C09BCF2D81DF
:1030F0003E812F37310509F4D4C08D819E818038FF
:1031000091053CF42D813E812F36310509F4C4C070
:1031100089CF8D819E818F38910509F4C7C02D819B
:103120003E812F39310509F4C7C07CCF80E061E0D2
:103130000E94451B81E00E94281180E061E00E940E
:103140004E1180E065E00E94341282E00E94281156
:103150008AE562E00E944E1180E067E00E9416124C
:1031600061CF81E062E00E94451B80E067E00E9441
:10317000341280E062E00E944E1154CF8C8188238B
:1031800021F485E00E9464074DCF8C818F3F09F0C8
:1031900049CF84E00E94640745CF8A81882321F4C7
:1031A00088E00E9464073ECF8A818F3F09F03ACFC2
:1031B00087E00E94640736CF8B81882321F48BE05F
:1031C0000E9464072FCF8B818F3F09F02BCF8AE0BD
:1031D0000E94640727CF8981882321F48EE00E9412
:1031E000640720CF89818F3F09F01CCF8DE00E94BA
:1031F000640718CF8C81882339F48AE561E00E9446
:103200004E118FEF8C830ECF8C818F3F09F00ACF48
:1032100080E061E00E944E111C8204CF80E065E0F6
:103220000E9452128A81882319F48FEF8A83FACE82
:103230008A818F3F09F0F6CE1A82F4CE8B818823E3
:1032400039F48AE562E00E944E118FEF8B83EACE5B
:103250008B818F3F09F0E6CE80E062E00E944E1144
:103260001B82E0CE80E067E00E94521289818823B1
:1032700019F48FEF8983D6CE89818F3F09F0D2CEA2
:103280001982D0CE81E062E00E94451BCBCE80E067
:1032900062E00E94451BC6CE80E061E00E94451BB3
:1032A000C1CE80E060E00E94451BBCCE8FEF0E9443
:1032B000640780936A01B6CE8FEF0E946407809303
:1032C0006901B0CEDF93CF93CDB7DEB78DE991E042
:1032D0000E94CC0E80919D01882F90E0AA2797FD37
:1032E000A095BA2FBC01CD010E948504DC01CB0161
:1032F000BC01CD0126EF38E24CE950E40E941F02E8
:10330000DC01CB018093990190939A01A0939B01DA
:10331000B0939C018091990190919A01A0919B0199
:10332000B0919C01BC01CD0120E030E040E251E4CD
:103330000E941903DC01CB018093990190939A01BB
:10334000A0939B01B0939C0180916A01882F90E02B
:10335000AA2797FDA095BA2FBC01CD010E94850434
:10336000DC01CB012091990130919A0140919B01A0
:1033700050919C01BC01CD010E94F50318165CF42C
:1033800080E062E040E00E946D0C80E063E041E09C
:103390000E946D0C31C080916901882F90E0AA27AE
:1033A00097FDA095BA2FBC01CD010E948504DC01D8
:1033B000CB012091990130919A0140919B0150914C
:1033C0009C01BC01CD010E94550488235CF480E07F
:1033D00063E040E00E946D0C80E062E041E00E940A
:1033E0006D0C0AC080E062E040E00E946D0C80E05D
:1033F00063E040E00E946D0CCF91DF9108951F9231
:103400000F920FB60F9211248F92AF92CF92EF923C
:103410000F932F933F934F935F936F937F938F936C
:103420009F93AF93BF93EF93FF93DF93CF93CDB76A
:10343000DEB76097DEBFCDBF80E090E0AAE7B4E4DE
:103440008B879C87AD87BE876B857C858D859E85A8
:1034500020E030E04AE753E40E941F02DC01CB0188
:103460008F839887A987BA876F81788589859A85A0
:1034700020E030E040E85FE30E94550488232CF40C
:1034800081E090E09E838D833FC06F817885898540
:103490009A8520E03FEF4FE757E40E94F5031816A6
:1034A0004CF56B857C858D859E8520E030E040E283
:1034B00051E40E941F02DC01CB01BC01CD010E943E
:1034C0004900DC01CB019E838D830FC089E190E030
:1034D0009C838B838B819C810197F1F79C838B83E9
:1034E0008D819E8101979E838D838D819E81009722
:1034F00069F714C06F81788589859A850E94490093
:10350000DC01CB019E838D838D819E819A8389838B
:1035100089819A810197F1F79A83898327E831E0BD
:1035200083E060E0A9010E94AD0D80918701282F02
:1035300030E0388B2F878F859889009709F446C033
:103540002F8538892130310509F080C000D0EDB7D2
:10355000FEB7319682E0808383E0818360E070E093
:1035600084E393E440E022E000E0EE246894E1F894
:10357000CC24C394AA246894A1F88824689481F880
:103580000E941B0F0F900F9000D0EDB7FEB7319641
:1035900082E0808387E0818360E070E084E393E4ED
:1035A00041E022E004E0EE246894E1F80F2EF5E01B
:1035B000CF2EF02DAA246894A1F80F2EF6E08F2EBE
:1035C000F02D0E941B0F0F900F9044C000D0EDB75C
:1035D000FEB7319682E0808383E0818360E070E013
:1035E00080E090E040E022E000E0EE246894E1F822
:1035F000CC24C394AA246894A1F88824689481F800
:103600000E941B0F0F900F9000D0EDB7FEB73196C0
:1036100082E0808387E0818360E070E080E090E07A
:1036200041E022E004E0EE246894E1F80F2EF5E09A
:10363000CF2EF02DAA246894A1F80F2EF6E08F2E3D
:10364000F02D0E941B0F0F900F9004C083E067E0E5
:103650000E9416126096DEBFCDBFCF91DF91FF9121
:10366000EF91BF91AF919F918F917F916F915F91FA
:103670004F913F912F910F91EF90CF90AF908F90FE
:103680000F900FBE0F901F901895DF93CF9300D02F
:1036900000D0CDB7DEB789836A838981282F30E0D7
:1036A0003C832B838B819C81009731F02B813C8163
:1036B00021303105B9F01AC083E061E00E94FC11AD
:1036C0008A81882331F483E066E040E00E946D0C3B
:1036D0000DC08A81813051F483E066E041E00E94B0
:1036E0006D0C04C083E061E00E94EB110F900F901D
:1036F0000F900F90CF91DF910895DF93CF9300D07B
:10370000CDB7DEB789836A83CE0101960E94CC0EC5
:103710008981882F90E0AA2797FDA095BA2FBC0138
:10372000CD010E948504DC01CB01BC01CD0126EF57
:1037300038E24CE950E40E941F02DC01CB01BC01DD
:10374000CD010E944900DC01CB018A838A81882F48
:1037500090E0AA2797FDA095BA2FBC01CD010E9449
:103760008504DC01CB01BC01CD0120E030E040E26A
:1037700051E40E941903DC01CB01BC01CD010E9480
:103780004900DC01CB018A830F900F90CF91DF912C
:103790000895A1E21A2EAA1BBB1BFD010DC0AA1F92
:1037A000BB1FEE1FFF1FA217B307E407F50720F0AA
:1037B000A21BB30BE40BF50B661F771F881F991F25
:1037C0001A9469F760957095809590959B01AC016E
:1037D000BD01CF0108952F923F924F925F926F9259
:1037E0007F928F929F92AF92BF92CF92DF92EF9291
:1037F000FF920F931F93CF93DF93CDB7DEB7CA1B12
:10380000DB0B0FB6F894DEBF0FBECDBF09942A883C
:10381000398848885F846E847D848C849B84AA84E4
:10382000B984C884DF80EE80FD800C811B81AA8171
:10383000B981CE0FD11D0FB6F894DEBF0FBECDBF3C
:08384000ED010895F894FFCF9B
:10384800000000000000000000010202030303035F
:103858000404040404040404050505050505050518
:1038680005050505050505050606060606060606F8
:1038780006060606060606060606060606060606E0
:1038880006060606060606060707070707070707C8
:1038980007070707070707070707070707070707B0
:1038A80007070707070707070707070707070707A0
:1038B8000707070707070707070707070707070790
:1038C8000707070707070707080808080808080878
:1038D8000808080808080808080808080808080860
:1038E8000808080808080808080808080808080850
:1038F8000808080808080808080808080808080840
:10390800080808080808080808080808080808082F
:10391800080808080808080808080808080808081F
:10392800080808080808080808080808080808080F
:1039380008080808080808080808080808080808FF
:103948000808080808080808FF1E143132333435FF
:10395800363738392A3023020602070300030102EA
:0639680003020402050049
:00000001FF
