:100000000C942A000C9447000C9447000C94470071
:100010000C9447000C9447000C9447000C94470044
:100020000C9447000C9447000C9447000C94DD2B73
:100030000C9447000C9447000C9447000C94470024
:100040000C9447000C9447000C9447000C94470014
:100050000C94470011241FBECFE5D8E0DEBFCDBF12
:1000600013E0A0E6B0E0EAEBF0E602C005900D92E6
:10007000A832B107D9F713E0A8E2B3E001C01D929E
:10008000AE32B107E1F70E94A60F0C945B300C94DE
:100090000000EF92FF920F931F937B018C0120E0F1
:1000A00030E040E05FE40E94490388238CF0C801FF
:1000B000B70120E030E040E05FE40E94C1010E940F
:1000C000A9039B01AC01205030404040504806C07D
:1000D000C801B7010E94A9039B01AC01B901CA0183
:1000E0001F910F91FF90EF900895A0E0B0E0EBE733
:1000F000F0E00C941730DC012B01FA019C91923056
:1001000008F439C1EB018881823008F433C194309E
:1001100069F4843009F02FC111969C91119789815F
:10012000981709F428C1A0EEB2E025C1843009F483
:1001300021C18230A9F4923009F01DC19A01AD01AC
:1001400088E0EA010990AE01E90109929E0181501F
:10015000C1F7E201898111969C918923818308C1AD
:10016000923009F407C112962D903C901397EB0141
:100170008A819B811496AD90BD90CD90DC901797AD
:10018000EC80FD800E811F819101281B390BB90184
:1001900037FF04C066277727621B730B6032710537
:1001A0000CF061C0121613066CF537014801062EDB
:1001B00004C096948794779467940A94D2F721E0C8
:1001C00030E040E050E004C0220F331F441F551FB1
:1001D0006A95D2F721503040404050402E213F21B7
:1001E00040235123211531054105510521F021E01E
:1001F00030E040E050E079018A01E628F72808293C
:1002000019293CC0232BD1F1260E371E350146019A
:10021000062E04C096948794779467940A94D2F734
:1002200021E030E040E050E004C0220F331F441FC3
:10023000551F6A95D2F721503040404050402A2146
:100240003B214C215D21211531054105510521F04E
:1002500021E030E040E050E059016A01A628B728CB
:10026000C828D9280BC0821593052CF01C01AA249C
:10027000BB24650103C0EE24FF24870111969C91E5
:10028000D20111968C91981709F445C0992339F041
:10029000A80197012A193B094C095D0906C0A6016E
:1002A00095012E193F09400B510B57FD08C01182D3
:1002B0003382228224833583468357831DC081E0A5
:1002C00081833382228288279927DC01821B930B4A
:1002D000A40BB50B84839583A683B7830DC0220F2F
:1002E000331F441F551F24833583468357838281E0
:1002F000938101979383828324813581468157813D
:10030000DA01C9010197A109B1098F5F9F4FAF4F72
:10031000BF4328F30BC0918333822282EA0CFB1C7B
:100320000C1D1D1DE482F5820683178383E0808304
:10033000248135814681578157FF1AC0C901AA27F8
:1003400097FDA095BA2F81709070A070B0705695EF
:10035000479537952795822B932BA42BB52B848318
:100360009583A683B7838281938101969383828349
:10037000DF0101C0D201CD01CDB7DEB7E2E10C94BF
:100380003330A0E2B0E0E7ECF1E00C942330698375
:100390007A838B839C832D833E834F835887E9E048
:1003A000EE2EF12CEC0EFD1ECE010196B7010E943F
:1003B000D2048E010F5E1F4FCE010596B8010E9438
:1003C000D2048A8991E089278A8BC701B801AE01DE
:1003D000475E5F4F0E9475000E94FD03A096E6E015
:1003E0000C943F30A0E2B0E0E8EFF1E00C94233051
:1003F00069837A838B839C832D833E834F835887C5
:10040000F9E0EF2EF12CEC0EFD1ECE010196B701A6
:100410000E94D2048E010F5E1F4FCE010596B801D7
:100420000E94D204C701B801AE01475E5F4F0E942F
:1004300075000E94FD03A096E6E00C943F30A0E218
:10044000B0E0E5E2F2E00C94173069837A838B83A5
:100450009C832D833E834F835887CE010196BE0136
:10046000675F7F4F0E94D204CE010596BE016F5E8A
:100470007F4F0E94D2049985923088F0898982301A
:10048000C8F0943019F4823051F404C0843029F457
:10049000923081F480EE92E0C6C0923049F420E0C0
:1004A0009A858A89981321E02A87CE010996BBC0D4
:1004B000823049F420E09A858A89981321E02A8BBA
:1004C000CE014196B0C02D843E844F8458886D88FB
:1004D0007E888F88988CEE24FF248701AA24BB2471
:1004E000650140E050E060E070E0E0E0F0E0C10174
:1004F00081709070892BE9F0E60CF71C081D191D1E
:100500009A01AB012A0D3B1D4C1D5D1D80E090E062
:10051000A0E0B0E0E614F7040805190520F481E036
:1005200090E0A0E0B0E0BA01A901480F591F6A1F8E
:100530007B1FAA0CBB1CCC1CDD1C97FE08C081E0F5
:1005400090E0A0E0B0E0A82AB92ACA2ADB2A3196B6
:10055000E032F10549F0660C771C881C991C569412
:10056000479437942794C3CFFA85EA892B893C892D
:100570008B859C85280F391F2E5F3F4F17C0CA01FE
:1005800081709070892B61F016950795F794E79428
:1005900080E090E0A0E0B0E8E82AF92A0A2B1B2BC3
:1005A00076956795579547952F5F3F4F77FDE7CF36
:1005B0000CC0440F551F661F771F17FD4160EE0CDE
:1005C000FF1C001F111F21503040403090E05907A0
:1005D00090E0690790E4790760F32B8F3C8FDB0193
:1005E000CA018F779070A070B07080349105A1051A
:1005F000B10561F447FD0AC0E114F10401051105DC
:1006000029F0405C5F4F6F4F7F4F40781A8EFE1786
:1006100011F081E08A8F4D8F5E8F6F8F78A383E01A
:10062000898FCE0149960E94FD03A096E2E10C94C9
:100630003330A8E1B0E0EFE1F3E00C9423306983BC
:100640007A838B839C832D833E834F83588789E0F5
:10065000E82EF12CEC0EFD1ECE010196B7010E9492
:10066000D2048E010F5E1F4FCE010596B8010E9485
:10067000D2048985823040F08989823028F0C70110
:10068000B8010E944A0501C08FEF6896E6E00C941D
:100690003F30A8E1B0E0EFE4F3E00C94233069834D
:1006A0007A838B839C832D833E834F83588789E095
:1006B000E82EF12CEC0EFD1ECE010196B7010E9432
:1006C000D2048E010F5E1F4FCE010596B8010E9425
:1006D000D2048985823040F08989823028F0C701B0
:1006E000B8010E944A0501C08FEF6896E6E00C94BD
:1006F0003F30A8E1B0E0EFE7F3E00C9423306983EA
:100700007A838B839C832D833E834F83588789E034
:10071000E82EF12CEC0EFD1ECE010196B7010E94D1
:10072000D2048E010F5E1F4FCE010596B8010E94C4
:10073000D2048985823040F08989823028F0C7014F
:10074000B8010E944A0501C081E06896E6E00C9479
:100750003F30ACE0B0E0EFEAF3E00C94273069837F
:100760007A838B839C83CE010196BE016B5F7F4FA2
:100770000E94D2048D81823061F1823050F1843048
:1007800021F48E81882351F12EC02F81388537FDC9
:1007900020C06E812F3131051CF06623F9F023C093
:1007A0008EE190E0821B930B29853A854B855C8511
:1007B00004C056954795379527958A95D2F76623B5
:1007C000B1F050954095309521953F4F4F4F5F4F79
:1007D0000EC020E030E040E050E009C02FEF3FEFD6
:1007E0004FEF5FE704C020E030E040E050E8B9019F
:1007F000CA012C96E2E00C944330DF92EF92FF9214
:100800000F931F93FC01E480F58006811781D1804E
:100810008081823048F480E090E0A0E1B0E0E82AF6
:10082000F92A0A2B1B2BA5C0843009F49FC0823003
:1008300021F4EE24FF24870105C0E114F104010531
:10084000110519F4E0E0F0E096C0628173819FEF3A
:10085000623879070CF05BC022E83FEF261B370BAC
:100860002A3131052CF020E030E040E050E02AC091
:10087000B801A701022E04C0769567955795479554
:100880000A94D2F781E090E0A0E0B0E004C0880FC5
:10089000991FAA1FBB1F2A95D2F70197A109B10979
:1008A0008E219F21A023B1230097A105B10521F03E
:1008B00081E090E0A0E0B0E09A01AB01282B392B59
:1008C0004A2B5B2BDA01C9018F779070A070B07052
:1008D00080349105A105B10539F427FF09C0205CDA
:1008E0003F4F4F4F5F4F04C0215C3F4F4F4F5F4F13
:1008F000E0E0F0E02030A0E03A07A0E04A07A0E402
:100900005A0710F0E1E0F0E079018A0127C0603871
:10091000710564F5FB01E158FF4FD801C7018F77DE
:100920009070A070B07080349105A105B10539F4C4
:10093000E7FE0DC080E490E0A0E0B0E004C08FE3EB
:1009400090E0A0E0B0E0E80EF91E0A1F1B1F17FFA1
:1009500005C016950795F794E794319687E01695AC
:100960000795F794E7948A95D1F705C0EE24FF2404
:100970008701EFEFF0E06E2F679566276795902F60
:100980009F77D794DD24D7948E2F8695492F462BB9
:10099000582F5D29B701CA011F910F91FF90EF9069
:1009A000DF900895FC01DB01408151812281622F9B
:1009B0006F7770E0221F2227221F9381892F880FD3
:1009C000822B282F30E0991F9927991F11969C930D
:1009D000119721153105A9F54115510561057105DD
:1009E00011F482E037C082E89FEF13969C938E93B8
:1009F00012979A01AB0167E0220F331F441F551F66
:100A00006A95D1F783E08C930DC0220F331F441FEA
:100A1000551F12968D919C911397019713969C9355
:100A20008E931297203080E0380780E0480780E4FA
:100A3000580758F314962D933D934D935C93179755
:100A400008952F3F310579F4411551056105710570
:100A500019F484E08C93089564FF03C081E08C93C3
:100A600012C01C9210C02F57304013963C932E9307
:100A7000129783E08C9387E0440F551F661F771F02
:100A80008A95D1F7706414964D935D936D937C9322
:100A9000179708951F93DC01FB019C91923008F495
:100AA00047C08081823008F443C0943051F41196DD
:100AB0001C91843099F58181682F70E0611B710968
:100AC0003FC0843021F0923031F48230B9F181811D
:100AD000882389F12DC011961C9111978230F1F075
:100AE00081811817D9F412962D913C911397828128
:100AF00093818217930794F028173907BCF0149656
:100B00008D919D910D90BC91A02D248135814681C0
:100B10005781281739074A075B0718F4112341F05A
:100B20000AC082179307A407B50740F4112319F0F0
:100B300061E070E005C06FEF7FEF02C060E070E041
:100B4000CB011F910895DF93CF93CDB7DEB7A7E315
:100B5000B0E0E7E3F0E08081806B8C93EDE2F0E0C1
:100B600080E18083ADE2B0E0EDE2F0E08081816081
:100B70008C93ADE2B0E0EDE2F0E0808180648C9394
:100B8000CF91DF910895DF93CF93CDB7DEB7A7E381
:100B9000B0E0E7E3F0E0808180648C93EDE2F0E088
:100BA0001082ADE2B0E0EDE2F0E0808180648C93F1
:100BB000CF91DF910895DF93CF9300D0CDB7DEB70B
:100BC0008A83EFE2F0E08A818083EEE2F0E08081C8
:100BD000881F8827881F882F90E090700097A9F3BE
:100BE000EEE2F0E080818983EFE2F0E080810F9017
:100BF0000F90CF91DF910895DF93CF93CDB7DEB7FC
:100C0000ADE2B0E0EDE2F0E080818F7B8C93CF919C
:100C1000DF910895DF93CF930F92CDB7DEB789832D
:100C20008981882359F4E3E5F0E09091E80280910E
:100C3000E902982B8091EA02892B80830F90CF9153
:100C4000DF910895DF93CF9300D00F92CDB7DEB739
:100C500089836A834B8389818823A1F48B81809364
:100C60002B03E2E5F0E080912B0380838A8180935F
:100C70002C03A9E5B0E0E9E5F0E0808181608C9388
:100C80000E9459060F900F900F90CF91DF91089519
:100C9000DF93CF930F92CDB7DEB78983A9E5B0E09C
:100CA000E9E5F0E080818E7F8C930F90CF91DF910A
:100CB0000895DF93CF93CDB7DEB7EFE5F0E080E89E
:100CC0008083CF91DF910895DF93CF93CDB7DEB7C7
:100CD000AFE5B0E0EFE5F0E080818F778C93CF91C6
:100CE000DF910895DF93CF9300D00F92CDB7DEB799
:100CF0009A8389836B83ECE3F0E08081882F90E016
:100D0000827090700097B9F7EEE3F0E089819A81E4
:100D100091838083EDE3F0E08B818083ACE3B0E0EE
:100D2000ECE3F0E0808184608C93ACE3B0E0ECE332
:100D3000F0E0808182608C930F900F900F90CF91A4
:100D4000DF910895DF93CF9300D0CDB7DEB79A83BC
:100D50008983ECE3F0E08081882F90E082709070CE
:100D60000097B9F7EEE3F0E089819A81918380835F
:100D7000ACE3B0E0ECE3F0E0808181608C93EDE3E4
:100D8000F0E080810F900F90CF91DF910895DF9375
:100D9000CF93CDB7DEB7EAE3F0E08FEF8083E7E3F0
:100DA000F0E08FEF8083E4E3F0E08FE38083E1E322
:100DB000F0E08CEF8083EBE3F0E01082E8E3F0E01A
:100DC0001082E5E3F0E088EF8083E2E3F0E083E087
:100DD0008083CF91DF910895DF93CF93CDB7DEB7B6
:100DE0002E970FB6F894DEBF0FBECDBF8A836B83FC
:100DF0004C8319828A81843030F48B81883018F4D6
:100E00008C81823018F081E08983D7C08A81282FB5
:100E100030E03E872D878D859E858130910509F4D0
:100E200044C02D853E85223031052CF48D859E856C
:100E3000009771F0C2C02D853E852230310509F43E
:100E400062C08D859E858330910509F489C0B5C047
:100E50008C818130A9F4ABE3B0E0EBE3F0E080817A
:100E6000482F8B81282F30E081E090E0022E02C0D5
:100E7000880F991F0A94E2F7842B8C939C919DC054
:100E8000ABE3B0E0EBE3F0E08081482F8B81282FCB
:100E900030E081E090E002C0880F991F2A95E2F7C8
:100EA000809584238C932C9188C08C818130A9F407
:100EB000A8E3B0E0E8E3F0E08081482F8B81282FA1
:100EC00030E081E090E0022E02C0880F991F0A9462
:100ED000E2F7842B8C933C9170C0A8E3B0E0E8E388
:100EE000F0E08081482F8B81282F30E081E090E076
:100EF000022E02C0880F991F0A94E2F7809584237E
:100F00008C938C915AC08C818130A9F4A5E3B0E018
:100F1000E5E3F0E08081482F8B81282F30E081E0ED
:100F200090E0022E02C0880F991F0A94E2F7842BEA
:100F30008C939C9142C0A5E3B0E0E5E3F0E08081B2
:100F4000482F8B81282F30E081E090E002C0880F8D
:100F5000991F2A95E2F7809584238C932C912DC0BC
:100F60008C818130A9F4A2E3B0E0E2E3F0E080817B
:100F7000482F8B81282F30E081E090E0022E02C0C4
:100F8000880F991F0A94E2F7842B8C933C9115C02B
:100F9000A2E3B0E0E2E3F0E08081482F8B81282FCC
:100FA00030E081E090E0022E02C0880F991F0A9481
:100FB000E2F7809584238C938C9189812E960FB6CD
:100FC000F894DEBF0FBECDBFCF91DF910895DF93C0
:100FD000CF9300D000D00F92CDB7DEB78A836B835A
:100FE00019828A81282F30E03D832C838C819D815A
:100FF00081309105D1F02C813D81223031052CF4D6
:101000008C819D81009761F01EC02C813D81223032
:10101000310581F08C819D818330910581F013C071
:10102000EBE3F0E08B8180830EC0E8E3F0E08B819E
:10103000808309C0E5E3F0E08B81808304C0E2E3B4
:10104000F0E08B81808389810F900F900F900F903B
:101050000F90CF91DF910895DF93CF93CDB7DEB797
:1010600027970FB6F894DEBF0FBECDBF8A836B8380
:101070005D834C8319828A81843038F48B81883077
:1010800020F48C819D81009719F481E0898370C0E0
:101090008A81282F30E03F832E834E815F8141304B
:1010A000510559F18E819F818230910534F42E8152
:1010B0003F812115310569F05BC04E815F8142306F
:1010C000510579F18E819F818330910509F43DC0EE
:1010D0004FC0E9E3F0E08081282F30E08B81882F3A
:1010E00090E0A90102C0559547958A95E2F7CA019B
:1010F0008170EC81FD8180833BC0E6E3F0E080817C
:10110000282F30E08B81882F90E0A90102C05595EF
:1011100047958A95E2F7CA018170EC81FD81808351
:1011200027C0E3E3F0E08081282F30E08B81882F17
:1011300090E0A90102C0559547958A95E2F7CA014A
:101140008170EC81FD81808313C0E0E3F0E0808159
:10115000282F30E08B81882F90E0A90102C055959F
:1011600047958A95E2F7CA018170EC81FD81808301
:10117000898127960FB6F894DEBF0FBECDBFCF9101
:10118000DF910895DF93CF9300D000D000D0CDB78A
:10119000DEB78A837C836B8319828A81282F30E0B3
:1011A0003E832D838D819E8181309105E1F02D81DB
:1011B0003E81223031052CF48D819E81009761F0B3
:1011C00026C02D813E8122303105A1F08D819E8186
:1011D00083309105B1F01BC0E9E3F0E08081EB8141
:1011E000FC81808314C0E6E3F0E08081EB81FC8128
:1011F00080830DC0E3E3F0E08081EB81FC8180839C
:1012000006C0E0E3F0E08081EB81FC81808389818E
:1012100026960FB6F894DEBF0FBECDBFCF91DF91FB
:101220000895DF93CF93CDB7DEB70E94C706CF9165
:10123000DF910895DF93CF9300D00F92CDB7DEB743
:101240008A836B8319828A81843018F48B81883079
:1012500018F081E0898305C08A816B8141E00E949A
:10126000EC0689810F900F900F90CF91DF91089538
:10127000DF93CF9300D00F92CDB7DEB78A836B8315
:1012800019828A81843018F48B81883018F081E0CB
:10129000898305C08A816B8140E00E94EC068981C8
:1012A0000F900F900F90CF91DF910895DF93CF9320
:1012B00000D000D000D0CDB7DEB78B836C8319820D
:1012C0008B81843018F48C81883018F081E0898318
:1012D00022C09E012E5F3F4F8B816C81A9010E942D
:1012E0002C088A81282F30E03E832D838D819E81BA
:1012F000009731F02D813E812130310539F00BC04E
:101300008B816C8141E00E94EC0605C08B816C8171
:1013100040E00E94EC06898126960FB6F894DEBF65
:101320000FBECDBFCF91DF910895DF93CF93CDB79F
:10133000DEB7E8970FB6F894DEBF0FBECDBF0E94B0
:10134000C70680E090E0A0E0B2E48DAB9EABAFAB0F
:10135000B8AF6DA97EA98FA998AD20E030E04AE72B
:1013600055E40E941F02DC01CB0189AB9AABABAB09
:10137000BCAB69A97AA98BA99CA920E030E040E820
:101380005FE30E94790388232CF481E090E098AB1E
:101390008FA73FC069A97AA98BA99CA920E03FEF3C
:1013A0004FE757E40E94190318164CF56DA97EA962
:1013B0008FA998AD20E030E040E251E40E941F0286
:1013C000DC01CB01BC01CD010E944900DC01CB0155
:1013D00098AB8FA70FC080E991E09EA78DA78DA540
:1013E0009EA50197F1F79EA78DA78FA598A90197B4
:1013F00098AB8FA78FA598A9009769F714C069A922
:101400007AA98BA99CA90E944900DC01CB0198AB69
:101410008FA78FA598A99CA78BA78BA59CA50197A3
:10142000F1F79CA78BA788E30E947E0B80E090E0F9
:10143000A0E8BFE38FA398A7A9A7BAA76FA178A533
:1014400089A59AA520E030E04AE755E40E941F02F2
:10145000DC01CB018BA39CA3ADA3BEA36BA17CA19C
:101460008DA19EA120E030E040E85FE30E94790377
:1014700088232CF481E090E09AA389A33FC06BA15C
:101480007CA18DA19EA120E03FEF4FE757E40E9491
:10149000190318164CF56FA178A589A59AA520E027
:1014A00030E040E251E40E941F02DC01CB01BC01AC
:1014B000CD010E944900DC01CB019AA389A30FC092
:1014C00080E991E098A38F8F8F8D98A10197F1F714
:1014D00098A38F8F89A19AA101979AA389A389A123
:1014E0009AA1009769F714C06BA17CA18DA19EA160
:1014F0000E944900DC01CB019AA389A389A19AA18A
:101500009E8F8D8F8D8D9E8D0197F1F79E8F8D8F84
:101510008EE00E947E0B80E090E0A0E8BFE3898F20
:101520009A8FAB8FBC8F698D7A8D8B8D9C8D20E0CF
:1015300030E04AE755E40E941F02DC01CB018D8BAD
:101540009E8BAF8BB88F6D897E898F89988D20E0B7
:1015500030E040E85FE30E94790388232CF481E0C7
:1015600090E09C8B8B8B3FC06D897E898F89988D95
:1015700020E03FEF4FE757E40E94190318164CF59F
:10158000698D7A8D8B8D9C8D20E030E040E251E4B6
:101590000E941F02DC01CB01BC01CD010E94490069
:1015A000DC01CB019C8B8B8B0FC080E991E09A8B87
:1015B000898B89899A890197F1F79A8B898B8B8915
:1015C0009C8901979C8B8B8B8B899C89009769F7F1
:1015D00014C06D897E898F89988D0E944900DC0135
:1015E000CB019C8B8B8B8B899C89988B8F878F856C
:1015F00098890197F1F7988B8F8781E00E947E0B85
:1016000080E090E0A0E0B0E48B879C87AD87BE8748
:101610006B857C858D859E8520E030E04AE755E42A
:101620000E941F02DC01CB018F839887A987BA87AC
:101630006F81788589859A8520E030E040E85FE316
:101640000E94790388232CF481E090E09E838D83AF
:101650003FC06F81788589859A8520E03FEF4FE70D
:1016600057E40E94190318164CF56B857C858D850F
:101670009E8520E030E040E251E40E941F02DC0140
:10168000CB01BC01CD010E944900DC01CB019E834E
:101690008D830FC080E991E09C838B838B819C813B
:1016A0000197F1F79C838B838D819E8101979E83A7
:1016B0008D838D819E81009769F714C06F81788535
:1016C00089859A850E944900DC01CB019E838D8328
:1016D0008D819E819A83898389819A810197F1F70F
:1016E0009A83898386E00E947E0BE8960FB6F89471
:1016F000DEBF0FBECDBFCF91DF910895DF93CF93B3
:1017000000D0CDB7DEB78A83198282E060E040E086
:101710000E94EC0682E061E040E00E94EC0680E07E
:101720006A810E94E7070E944F0D89810F900F90F8
:10173000CF91DF910895DF93CF9300D0CDB7DEB77F
:101740008A83198282E060E041E00E94EC0682E038
:1017500061E040E00E94EC0680E06A810E94E707B9
:101760000E944F0D89810F900F90CF91DF910895C6
:10177000DF93CF9300D00F92CDB7DEB79B838A83E0
:1017800019828A819B81009769F481E089830FC067
:10179000EA81FB8180810E949B0B8A819B8101965B
:1017A0009B838A83EA81FB818081882389F78981F1
:1017B0000F900F900F90CF91DF910895DF93CF930B
:1017C00000D000D00F92CDB7DEB78A836B83198229
:1017D0008A81823018F48B81803118F081E089830E
:1017E00019C08A81282F30E03D832C838C819D8114
:1017F000009731F02C813D812130310531F00AC054
:101800008B8180680E947E0B05C08B81805C806824
:101810000E947E0B89810F900F900F900F900F9078
:10182000CF91DF910895DF93CF93CDB7DEB7659762
:101830000FB6F894DEBF0FBECDBF9A8B898B6B8B32
:101840004C8B2D8B188A89899A89009749F08B894E
:10185000883030F48C89823018F48D89803118F00A
:1018600081E0888B99C08B89882F90E00896880F3B
:10187000991F880F991F880F991F0E947E0B1F8642
:1018800080C08F85282F30E089899A89FC01E20F7A
:10189000F31F80810E949B0B80E090E0A0EAB0E4FF
:1018A0008B879C87AD87BE876B857C858D859E8564
:1018B00020E030E04AE755E40E941F02DC01CB0142
:1018C0008F839887A987BA876F81788589859A855C
:1018D00020E030E040E85FE30E94790388232CF4A5
:1018E00081E090E09E838D833FC06F8178858985FC
:1018F0009A8520E03FEF4FE757E40E94190318163E
:101900004CF56B857C858D859E8520E030E040E23E
:1019100051E40E941F02DC01CB01BC01CD010E94F9
:101920004900DC01CB019E838D830FC080E991E0EB
:101930009C838B838B819C810197F1F79C838B83A4
:101940008D819E8101979E838D838D819E810097DD
:1019500069F714C06F81788589859A850E9449004E
:10196000DC01CB019E838D838D819E819A83898347
:1019700089819A810197F1F79A8389838F858F5F97
:101980008F878F85883008F47CCF8C896D890E9481
:10199000DE0B8B890E949B0B888965960FB6F894A5
:1019A000DEBF0FBECDBFCF91DF910895DF93CF9300
:1019B000CDB7DEB761970FB6F894DEBF0FBECDBFCF
:1019C0008C871982CE0102969E878D87E0E6F0E033
:1019D000F88BEF87FAE0F98BEF85F88900808F8527
:1019E00098890196988B8F87ED85FE8500828D857D
:1019F0009E8501969E878D8799899150998BE9895B
:101A0000EE2351F78C859AE0692F0E940B309AE003
:101A1000692F0E940B30892F282F30E0CE010296CB
:101A2000FC01E20FF31F80810E949B0B8C859AE0E2
:101A3000692F0E940B30892F282F30E0CE010296AB
:101A4000FC01E20FF31F80810E949B0B898161964C
:101A50000FB6F894DEBF0FBECDBFCF91DF910895D2
:101A6000DF93CF9300D0CDB7DEB78A8319828A8106
:101A7000823018F081E089830CC08A8160E00E9486
:101A8000DE0B8BE690E00E94B80B8A8160E00E943A
:101A9000DE0B89810F900F90CF91DF910895DF9336
:101AA000CF93CDB7DEB72E970FB6F894DEBF0FBE3B
:101AB000CDBF82E062E041E00E94EC0680E090E071
:101AC000A0E8BFE38B879C87AD87BE876B857C854D
:101AD0008D859E8520E030E04AE755E40E941F0294
:101AE000DC01CB018F839887A987BA876F817885BE
:101AF00089859A8520E030E040E85FE30E94790321
:101B000088232CF481E090E09E838D833FC06F8119
:101B1000788589859A8520E03FEF4FE757E40E945A
:101B2000190318164CF56B857C858D859E8520E004
:101B300030E040E251E40E941F02DC01CB01BC0115
:101B4000CD010E944900DC01CB019E838D830FC033
:101B500080E991E09C838B838B819C810197F1F7D5
:101B60009C838B838D819E8101979E838D838D8144
:101B70009E81009769F714C06F81788589859A8561
:101B80000E944900DC01CB019E838D838D819E8163
:101B90009A83898389819A810197F1F79A8389834E
:101BA00082E062E040E00E94EC062E960FB6F894C8
:101BB000DEBF0FBECDBFCF91DF910895DF93CF93EE
:101BC000CDB7DEB70E94C706CF91DF910895DF93AE
:101BD000CF93CDB7DEB764970FB6F894DEBF0FBED4
:101BE000CDBF9C8B8B8B198A8B899C89009719F4AC
:101BF00081E0898BE5C01F86DFC08F85882F90E04C
:101C0000880F991FFC01EE5FFC4F20818F85882F84
:101C100090E0880F991FFC01ED5FFC4F9081822FAF
:101C2000692F40E00E94EC06188AA8C08889882F96
:101C300090E0880F991FFC01E650FD4F4081888994
:101C4000882F90E0880F991FFC01E550FD4F90818F
:101C50009E012E5E3F4F842F692FA9010E942C0800
:101C60008A89882309F087C08889282F30E08F85EA
:101C7000482F50E0C901880F991F820F931F840FCE
:101C8000951FFC01E251FD4F8081EB89FC89808327
:101C900080E090E0A0E7B1E48B879C87AD87BE87AA
:101CA0006B857C858D859E8520E030E04AE755E494
:101CB0000E941F02DC01CB018F839887A987BA8716
:101CC0006F81788589859A8520E030E040E85FE380
:101CD0000E94790388232CF481E090E09E838D8319
:101CE0003FC06F81788589859A8520E03FEF4FE777
:101CF00057E40E94190318164CF56B857C858D8579
:101D00009E8520E030E040E251E40E941F02DC01A9
:101D1000CB01BC01CD010E944900DC01CB019E83B7
:101D20008D830FC080E991E09C838B838B819C81A4
:101D30000197F1F79C838B838D819E8101979E8310
:101D40008D838D819E81009769F71CC06F81788596
:101D500089859A850E944900DC01CB019E838D8391
:101D60008D819E819A83898389819A810197F1F778
:101D70009A83898307C088898F5F888B888984309C
:101D800008F454CF8F85882F90E0880F991FFC01AD
:101D9000EE5FFC4F20818F85882F90E0880F991F80
:101DA000FC01ED5FFC4F9081822F692F41E00E9482
:101DB000EC068F858F5F8F878F85833008F41DCF6A
:101DC000898964960FB6F894DEBF0FBECDBFCF9160
:101DD000DF910895DF93CF93CDB7DEB76B970FB642
:101DE000F894DEBF0FBECDBFCE010F96988F8F8BBC
:101DF000E8E0F3E0FA8FE98FF8E0FB8FE98DFA8DE8
:101E00000080898D9A8D01969A8F898FEF89F88D40
:101E100000828F89988D0196988F8F8B9B8D915022
:101E20009B8FEB8DEE2351F783E067E041E00E944A
:101E3000EC0681E00E947E0BCE010F9660E040E050
:101E400028E00E94130C81E062E00E94DE0B8CE728
:101E500090E00E94B80B80E090E0A8ECB2E48B87A1
:101E60009C87AD87BE876B857C858D859E8520E0B0
:101E700030E04AE755E40E941F02DC01CB018F836A
:101E80009887A987BA876F81788589859A8520E0A8
:101E900030E040E85FE30E94790388232CF481E07E
:101EA00090E09E838D833FC06F81788589859A8578
:101EB00020E03FEF4FE757E40E94190318164CF556
:101EC0006B857C858D859E8520E030E040E251E485
:101ED0000E941F02DC01CB01BC01CD010E94490020
:101EE000DC01CB019E838D830FC080E991E09C8350
:101EF0008B838B819C810197F1F79C838B838D81F0
:101F00009E8101979E838D838D819E81009769F7C5
:101F100014C06F81788589859A850E944900DC010B
:101F2000CB019E838D838D819E819A838983898154
:101F30009A810197F1F79A8389836B960FB6F8948B
:101F4000DEBF0FBECDBFCF91DF9108950F931F93DA
:101F5000DF93CF93CDB7DEB7C05DD0400FB6F89416
:101F6000DEBF0FBECDBFFE01E754FF4F8FEF808372
:101F7000FE01E754FF4F8FEF8183FE01E754FF4FCF
:101F80008FEF8283FE01E754FF4F8FEF8383FE01C3
:101F9000E354FF4F8FEF8083FE01E354FF4F8FEF39
:101FA0008183FE01E354FF4F8FEF8283FE01E354F0
:101FB000FF4F8FEF8383FE01EF53FF4F8FEF80833F
:101FC000CE018E539F4FC453DF4F99838883CC5CDF
:101FD000D04020E133E0C253DF4F39832883CE5C09
:101FE000D04038E0C053DF4F3883C05DD040C2538B
:101FF000DF4FE881F981CE5CD0400080C253DF4FD3
:1020000028813981CE5CD0402F5F3F4FC253DF4FD4
:1020100039832883CE5CD040C453DF4FE881F981F7
:10202000CC5CD0400082C453DF4F28813981CC5C26
:10203000D0402F5F3F4FC453DF4F39832883CC5CA0
:10204000D040C053DF4F3881C05DD0403150C053C5
:10205000DF4F3883C05DD040C053DF4F8881C05D03
:10206000D040882321F60E94A3050E94950980E0B4
:102070000E940A0683E066E041E00E94EC068CE0E4
:102080000E947E0B80E063E00E94DE0B8AE890E015
:102090000E94B80B81E065E00E94DE0B86E990E0CB
:1020A0000E94B80BFE01ED54FF4F80E090E0A8ECD9
:1020B000B2E480839183A283B3838E0101551F4FC5
:1020C000FE01ED54FF4F608171818281938120E098
:1020D00030E04AE755E40E941F02DC01CB01F80121
:1020E00080839183A283B383FE01E155FF4F60811A
:1020F00071818281938120E030E040E85FE30E94BB
:102100007903882344F4FE01E355FF4F81E090E01A
:102110009183808364C0FE01E155FF4F608171812E
:102120008281938120E03FEF4FE757E40E9419033B
:1021300018160CF043C0FE01ED54FF4F6081718111
:102140008281938120E030E040E251E40E941F024E
:10215000DC01CB018E0103551F4FBC01CD010E9454
:102160004900DC01CB01F801918380831FC0FE018F
:10217000E555FF4F80E991E091838083FE01E555AD
:10218000FF4F808191810197F1F7FE01E555FF4FE7
:1021900091838083DE01A355BF4FFE01E355FF4FBE
:1021A00080819181019711969C938E93FE01E35556
:1021B000FF4F808191810097D1F627C08E01035592
:1021C0001F4FFE01E155FF4F608171818281938134
:1021D0000E944900DC01CB01F80191838083DE017C
:1021E000A755BF4FFE01E355FF4F808191818D932D
:1021F0009C93FE01E755FF4F808191810197F1F794
:10220000FE01E755FF4F9183808381E00E947E0BA2
:1022100080E060E00E94DE0BFE01EB55FF4F80E0A6
:1022200090E0A8ECB2E480839183A283B3838E0113
:102230000F551F4FFE01EB55FF4F60817181828169
:10224000938120E030E04AE755E40E941F02DC0160
:10225000CB01F80180839183A283B383FE01EF5504
:10226000FF4F608171818281938120E030E040E8FE
:102270005FE30E947903882344F4FE01E156FF4F97
:1022800081E090E09183808364C0FE01EF55FF4FB1
:10229000608171818281938120E03FEF4FE757E4B5
:1022A0000E94190318160CF043C0FE01EB55FF4FB6
:1022B000608171818281938120E030E040E251E4CD
:1022C0000E941F02DC01CB018E0101561F4FBC0191
:1022D000CD010E944900DC01CB01F801918380838C
:1022E0001FC0FE01E356FF4F80E991E09183808398
:1022F000FE01E356FF4F808191810197F1F7FE01C6
:10230000E356FF4F91838083DE01A156BF4FFE014C
:10231000E156FF4F80819181019711969C938E9396
:10232000FE01E156FF4F808191810097D1F627C0D1
:102330008E0101561F4FFE01EF55FF4F60817181E5
:10234000828193810E944900DC01CB01F8019183D5
:102350008083DE01A556BF4FFE01E156FF4F80810D
:1023600091818D939C93FE01E556FF4F8081918171
:102370000197F1F7FE01E556FF4F91838083E0EE70
:10238000F2E0808191810E94A206882351F4E0EF5F
:10239000F2E0808191810E94A206882311F40C94BE
:1023A000121A8DE990E00E94B80B81E060E00E9473
:1023B000DE0BFE01E956FF4F80E090E0A8E4B2E4B6
:1023C00080839183A283B3838E010D561F4FFE013C
:1023D000E956FF4F608171818281938120E030E076
:1023E0004AE755E40E941F02DC01CB01F80180831B
:1023F0009183A283B383FE01ED56FF4F608171810B
:102400008281938120E030E040E85FE30E9479031D
:10241000882344F4FE01EF56FF4F81E090E0918362
:10242000808364C0FE01ED56FF4F6081718182811F
:10243000938120E03FEF4FE757E40E9419031816FD
:102440000CF043C0FE01E956FF4F6081718182812B
:10245000938120E030E040E251E40E941F02DC0161
:10246000CB018E010F561F4FBC01CD010E944900C8
:10247000DC01CB01F801918380831FC0FE01E1578D
:10248000FF4F80E991E091838083FE01E157FF4F88
:10249000808191810197F1F7FE01E157FF4F918310
:1024A0008083DE01AF56BF4FFE01EF56FF4F8081A4
:1024B0009181019711969C938E93FE01EF56FF4FE9
:1024C000808191810097D1F627C08E010F561F4F52
:1024D000FE01ED56FF4F60817181828193810E94E0
:1024E0004900DC01CB01F80191838083DE01A35711
:1024F000BF4FFE01EF56FF4F808191818D939C93DA
:10250000FE01E357FF4F808191810197F1F7FE01B2
:10251000E357FF4F918380838EEA90E00E94B80BCF
:102520008EE00E947E0BFE01E854FF4F1082F3C044
:10253000FE01EF53FF4F8FEF808305C0CE018F5315
:102540009F4F0E94E70DFE01EF53FF4F80818F3FA9
:10255000A9F3FE01EF53FF4F80810E949B0BFE0108
:10256000E757FF4F80E090E0A0EFB1E480839183D4
:10257000A283B3838E010B571F4FFE01E757FF4F16
:10258000608171818281938120E030E04AE755E4E7
:102590000E941F02DC01CB01F80180839183A2839A
:1025A000B383FE01EB57FF4F60817181828193817C
:1025B00020E030E040E85FE30E947903882344F4A0
:1025C000FE01ED57FF4F81E090E09183808364C06E
:1025D000FE01EB57FF4F608171818281938120E082
:1025E0003FEF4FE757E40E94190318160CF043C061
:1025F000FE01E757FF4F608171818281938120E066
:1026000030E040E251E40E941F02DC01CB018E0168
:102610000D571F4FBC01CD010E944900DC01CB01C9
:10262000F801918380831FC0FE01EF57FF4F80E9BF
:1026300091E091838083FE01EF57FF4F808191816C
:102640000197F1F7FE01EF57FF4F91838083DE0181
:10265000AD57BF4FFE01ED57FF4F8081918101972C
:1026600011969C938E93FE01ED57FF4F80819181CF
:102670000097D1F627C08E010D571F4FFE01EB5773
:10268000FF4F60817181828193810E944900DC014A
:10269000CB01F80191838083DE01A158BF4FFE0179
:1026A000ED57FF4F808191818D939C93FE01E158FE
:1026B000FF4F808191810197F1F7FE01E158FF4FB3
:1026C00091838083FE01E854FF4F8081982F945FAF
:1026D00081E0692F0E94DE0B8AE20E949B0BE8E0FA
:1026E000F2E020813181FE01E854FF4F8081882F84
:1026F00090E0820F931FFE01EF53FF4F2081622F66
:102700000E944E30DE01A854BF4FFE01E854FF4F37
:1027100080818F5F8C93FE01E854FF4F808184306D
:1027200008F406CFE0EEF2E08081918160E00E9443
:102730004E30FE01E558FF4F80E090E0A0EAB1E4A2
:1027400080839183A283B3838E0109581F4FFE01BA
:10275000E558FF4F608171818281938120E030E0F4
:102760004AE755E40E941F02DC01CB01F801808397
:102770009183A283B383FE01E958FF4F6081718189
:102780008281938120E030E040E85FE30E9479039A
:10279000882344F4FE01EB58FF4F81E090E09183E1
:1027A000808364C0FE01E958FF4F6081718182819E
:1027B000938120E03FEF4FE757E40E94190318167A
:1027C0000CF043C0FE01E558FF4F608171818281AA
:1027D000938120E030E040E251E40E941F02DC01DE
:1027E000CB018E010B581F4FBC01CD010E94490047
:1027F000DC01CB01F801918380831FC0FE01ED58FD
:10280000FF4F80E991E091838083FE01ED58FF4FF7
:10281000808191810197F1F7FE01ED58FF4F91837F
:102820008083DE01AB58BF4FFE01EB58FF4F808124
:102830009181019711969C938E93FE01EB58FF4F67
:10284000808191810097D1F627C08E010B581F4FD0
:10285000FE01E958FF4F60817181828193810E945E
:102860004900DC01CB01F80191838083DE01AF5880
:10287000BF4FFE01EB58FF4F808191818D939C9358
:10288000FE01EF58FF4F808191810197F1F7FE0122
:10289000EF58FF4F918380838CE00E947E0B81E094
:1028A00060E00E94DE0B8BEB90E00E94B80BFE0113
:1028B000E359FF4F80E090E0A0EFB1E48083918383
:1028C000A283B3838E0107591F4FFE01E359FF4FC7
:1028D000608171818281938120E030E04AE755E494
:1028E0000E941F02DC01CB01F80180839183A28347
:1028F000B383FE01E759FF4F60817181828193812B
:1029000020E030E040E85FE30E947903882344F44C
:10291000FE01E959FF4F81E090E09183808364C01C
:10292000FE01E759FF4F608171818281938120E030
:102930003FEF4FE757E40E94190318160CF043C00D
:10294000FE01E359FF4F608171818281938120E014
:1029500030E040E251E40E941F02DC01CB018E0115
:1029600009591F4FBC01CD010E944900DC01CB0178
:10297000F801918380831FC0FE01EB59FF4F80E96E
:1029800091E091838083FE01EB59FF4F808191811B
:102990000197F1F7FE01EB59FF4F91838083DE0130
:1029A000A959BF4FFE01E959FF4F808191810197DD
:1029B00011969C938E93FE01E959FF4F808191817E
:1029C0000097D1F627C08E0109591F4FFE01E75924
:1029D000FF4F60817181828193810E944900DC01F7
:1029E000CB01F80191838083DE01AD59BF4FFE0119
:1029F000E959FF4F808191818D939C93FE01ED59A0
:102A0000FF4F808191810197F1F7FE01ED59FF4F52
:102A100091838083FE01E854FF4F108281E060E0E3
:102A20000E94DE0B8CEC90E00E94B80B8EE00E94BE
:102A30007E0BFE01E854FF4F1082F3C0FE01EF53FE
:102A4000FF4F8FEF808305C0CE018F539F4F0E94B1
:102A5000E70DFE01EF53FF4F80818F3FA9F3FE0189
:102A6000EF53FF4F80810E949B0BFE01E15AFF4F05
:102A700080E090E0A0EFB1E480839183A283B383F0
:102A80008E01055A1F4FFE01E15AFF4F608171818F
:102A90008281938120E030E04AE755E40E941F02E2
:102AA000DC01CB01F80180839183A283B383FE0113
:102AB000E55AFF4F608171818281938120E030E08F
:102AC00040E85FE30E947903882344F4FE01E75A5B
:102AD000FF4F81E090E09183808364C0FE01E55A5E
:102AE000FF4F608171818281938120E03FEF4FE74A
:102AF00057E40E94190318160CF043C0FE01E15A76
:102B0000FF4F608171818281938120E030E040E25B
:102B100051E40E941F02DC01CB018E01075A1F4FB6
:102B2000BC01CD010E944900DC01CB01F801918379
:102B300080831FC0FE01E95AFF4F80E991E0918335
:102B40008083FE01E95AFF4F808191810197F1F75F
:102B5000FE01E95AFF4F91838083DE01A75ABF4FE0
:102B6000FE01E75AFF4F80819181019711969C9356
:102B70008E93FE01E75AFF4F808191810097D1F635
:102B800027C08E01075A1F4FFE01E55AFF4F608193
:102B90007181828193810E944900DC01CB01F8019F
:102BA00091838083DE01AB5ABF4FFE01E75AFF4F8E
:102BB000808191818D939C93FE01EB5AFF4F808120
:102BC00091810197F1F7FE01EB5AFF4F91838083CA
:102BD000FE01E854FF4F8081982F945F81E0692FB8
:102BE0000E94DE0B8AE20E949B0BE0EDF2E0208166
:102BF0003181FE01E854FF4F8081882F90E0820FE1
:102C0000931FFE01EF53FF4F2081622F0E944E3031
:102C1000DE01A854BF4FFE01E854FF4F80818F5F53
:102C20008C93FE01E854FF4F8081843008F406CF76
:102C3000E0EFF2E08081918160E00E944E30FE0181
:102C4000EF5AFF4F80E090E0A0EAB1E480839183E7
:102C5000A283B3838E01035B1F4FFE01EF5AFF4F28
:102C6000608171818281938120E030E04AE755E400
:102C70000E941F02DC01CB01F80180839183A283B3
:102C8000B383FE01E35BFF4F608171818281938199
:102C900020E030E040E85FE30E947903882344F4B9
:102CA000FE01E55BFF4F81E090E09183808364C08B
:102CB000FE01E35BFF4F608171818281938120E09F
:102CC0003FEF4FE757E40E94190318160CF043C07A
:102CD000FE01EF5AFF4F608171818281938120E074
:102CE00030E040E251E40E941F02DC01CB018E0182
:102CF000055B1F4FBC01CD010E944900DC01CB01E7
:102D0000F801918380831FC0FE01E75BFF4F80E9DC
:102D100091E091838083FE01E75BFF4F8081918189
:102D20000197F1F7FE01E75BFF4F91838083DE019E
:102D3000A55BBF4FFE01E55BFF4F8081918101974D
:102D400011969C938E93FE01E55BFF4F80819181EC
:102D50000097D1F627C08E01055B1F4FFE01E35B94
:102D6000FF4F60817181828193810E944900DC0163
:102D7000CB01F80191838083DE01A95BBF4FFE0187
:102D8000E55BFF4F808191818D939C93FE01E95B10
:102D9000FF4F808191810197F1F7FE01E95BFF4FC1
:102DA000918380838CE00E947E0B81E060E00E9432
:102DB000DE0B8BEB90E00E94B80BFE01ED5BFF4F4A
:102DC00080E090E0A0EFB1E480839183A283B3839D
:102DD0008E01015C1F4FFE01ED5BFF4F6081718131
:102DE0008281938120E030E04AE755E40E941F028F
:102DF000DC01CB01F80180839183A283B383FE01C0
:102E0000FF96608171818281938120E030E040E80B
:102E10005FE30E94790388232CF481E090E09EAF69
:102E20008DAF46C0FE01FF966081718182819381E2
:102E300020E03FEF4FE757E40E941903181664F5AE
:102E4000FE01ED5BFF4F608171818281938120E003
:102E500030E040E251E40E941F02DC01CB01BC01E2
:102E6000CD010E944900DC01CB019EAF8DAF0FC0A8
:102E700080E991E09CAF8BAF8BAD9CAD0197F1F7F2
:102E80009CAF8BAF8DAD9EAD01979EAF8DAF8DADDD
:102E90009EAD009769F716C0FE01FF9660817181B3
:102EA000828193810E944900DC01CB019EAF8DAFEE
:102EB0008DAD9EAD9AAF89AF89AD9AAD0197F1F70F
:102EC0009AAF89AF81E00E947E0B80E060E00E94B3
:102ED000DE0B8DED90E00E94B80B81E063E00E9474
:102EE000DE0B8EEE90E00E94B80BCE018E539F4F0A
:102EF00060E041E02DE00E94130C80E090E0A8E447
:102F0000B2E48DAB9EABAFABB8AF6DA97EA98FA974
:102F100098AD20E030E04AE755E40E941F02DC0152
:102F2000CB0189AB9AABABABBCAB69A97AA98BA936
:102F30009CA920E030E040E85FE30E947903882309
:102F40002CF481E090E098AB8FA73FC069A97AA9E3
:102F50008BA99CA920E03FEF4FE757E40E9419039B
:102F600018164CF56DA97EA98FA998AD20E030E028
:102F700040E251E40E941F02DC01CB01BC01CD0103
:102F80000E944900DC01CB0198AB8FA70FC080E9FC
:102F900091E09EA78DA78DA59EA50197F1F79EA70D
:102FA0008DA78FA598A9019798AB8FA78FA598A9F2
:102FB000009769F714C069A97AA98BA99CA90E94F6
:102FC0004900DC01CB0198AB8FA78FA598A99CA7DE
:102FD0008BA78BA59CA50197F1F79CA78BA781E0F8
:102FE0000E947E0B1FC288EF90E00E94B80B81E028
:102FF00060E00E94DE0B84E091E00E94B80BFE01CD
:10300000EF53FF4F8FEF808306C2CE018F539F4F48
:103010000E94E70DFE01EF53FF4F8081282F30E023
:10302000C653DF4F39832883CA5CD040C653DF4F75
:1030300088819981CA5CD0408133910559F0C6538B
:10304000DF4FE881F981CA5CD040E233F10509F431
:10305000EFC0DCC181E00E947E0B80E060E00E9456
:10306000DE0B85E191E00E94B80B81E060E00E94F8
:10307000DE0B81E291E00E94B80B8EE00E947E0B95
:10308000FE01E954FF4F80EA8083FE01E854FF4FC0
:103090001082B9C0FE01EF53FF4F8FEF808305C050
:1030A000CE018F539F4F0E94E70DFE01EF53FF4F5C
:1030B00080818F3FA9F3FE01EF53FF4F80810E9473
:1030C0009B0B80E090E0A0EFB1E48FA398A7A9A7A5
:1030D000BAA76FA178A589A59AA520E030E04AE7B4
:1030E00055E40E941F02DC01CB018BA39CA3ADA37E
:1030F000BEA36BA17CA18DA19EA120E030E040E8A1
:103100005FE30E94790388232CF481E090E09AA386
:1031100089A33FC06BA17CA18DA19EA120E03FEFC0
:103120004FE757E40E94190318164CF56FA178A5D4
:1031300089A59AA520E030E040E251E40E941F02F8
:10314000DC01CB01BC01CD010E944900DC01CB01B7
:103150009AA389A30FC080E991E098A38F8F8F8DE8
:1031600098A10197F1F798A38F8F89A19AA1019750
:103170009AA389A389A19AA1009769F714C06BA1AA
:103180007CA18DA19EA10E944900DC01CB019AA3E4
:1031900089A389A19AA19E8F8D8F8D8D9E8D019778
:1031A000F1F79E8F8D8FFE01E854FF4F8081982F9D
:1031B000965F81E0692F0E94DE0B8AE20E949B0BE2
:1031C000E8E0F2E020813181FE01E854FF4F808188
:1031D000882F90E0820F931F0E94A206982FFE0175
:1031E000EF53FF4F8081981729F0FE01E954FF4FFC
:1031F0008AE08083DE01A854BF4FFE01E854FF4FF0
:1032000080818F5F8C93FE01E854FF4F8081843072
:1032100008F440CF8CE00E947E0BFE01E954FF4F82
:1032200080818A3009F416CF81E080932803F3C0AF
:1032300081E00E947E0B80E060E00E94DE0B8CE269
:1032400091E00E94B80B81E060E00E94DE0B81E219
:1032500091E00E94B80B8EE00E947E0BFE01E954C3
:10326000FF4F80EA8083FE01E854FF4F1082B9C00F
:10327000FE01EF53FF4F8FEF808305C0CE018F53C8
:103280009F4F0E94E70DFE01EF53FF4F80818F3F5C
:10329000A9F3FE01EF53FF4F80810E949B0B80E05A
:1032A00090E0A0EFB1E4898F9A8FAB8FBC8F698DCE
:1032B0007A8D8B8D9C8D20E030E04AE755E40E94AA
:1032C0001F02DC01CB018D8B9E8BAF8BB88F6D897C
:1032D0007E898F89988D20E030E040E85FE30E948E
:1032E000790388232CF481E090E09C8B8B8B3FC08A
:1032F0006D897E898F89988D20E03FEF4FE757E4F5
:103300000E94190318164CF5698D7A8D8B8D9C8D52
:1033100020E030E040E251E40E941F02DC01CB01DA
:10332000BC01CD010E944900DC01CB019C8B8B8B41
:103330000FC080E991E09A8B898B89899A890197DE
:10334000F1F79A8B898B8B899C8901979C8B8B8B4E
:103350008B899C89009769F714C06D897E898F8954
:10336000988D0E944900DC01CB019C8B8B8B8B8953
:103370009C89988B8F878F8598890197F1F7988B17
:103380008F87FE01E854FF4F8081982F965F81E080
:10339000692F0E94DE0B8AE20E949B0BE8E0F2E0BC
:1033A00020813181FE01E854FF4F8081882F90E019
:1033B000820F931F0E94A206982FFE01EF53FF4F2A
:1033C0008081981729F0FE01E954FF4F8AE080833D
:1033D000DE01A854BF4FFE01E854FF4F80818F5F8C
:1033E0008C93FE01E854FF4F8081843008F440CF75
:1033F0008CE00E947E0BFE01E954FF4F80818A30F1
:1034000009F416CF80E18093280305C0FE01EF5335
:10341000FF4F8FEF8083FE01EF53FF4F80818F3F7F
:1034200009F4F3CD80912803882309F4DCCD809141
:103430002803813021F40E94EA0E0E949A1A80919A
:103440002803803121F40E94EA0E0E94062D80E0BC
:1034500090E0AAE7B4E48B879C87AD87BE876B8535
:103460007C858D859E8520E030E04AE755E40E940A
:103470001F02DC01CB018F839887A987BA876F81F0
:10348000788589859A8520E030E040E85FE30E94F6
:10349000790388232CF481E090E09E838D833FC0E4
:1034A0006F81788589859A8520E03FEF4FE757E463
:1034B0000E94190318164CF56B857C858D859E85B9
:1034C00020E030E040E251E40E941F02DC01CB0129
:1034D000BC01CD010E944900DC01CB019E838D839C
:1034E0000FC080E991E09C838B838B819C81019745
:1034F000F1F79C838B838D819E8101979E838D83C1
:103500008D819E81009769F78DCF6F817885898540
:103510009A850E944900DC01CB019E838D838D81B9
:103520009E819A83898389819A810197F1F79A8391
:10353000898378CF0F931F93DF93CF93CDB7DEB7F7
:10354000CF5AD0400FB6F894DEBF0FBECDBFFE01FC
:10355000E157FF4F1082CE0180579F4FCA55DF4F72
:1035600099838883C65AD04020E233E0C855DF4FA4
:1035700039832883C85AD04038E0C655DF4F388396
:10358000CA5AD040C855DF4FE881F981C85AD040A7
:103590000080C855DF4F28813981C85AD0402F5F3D
:1035A0003F4FC855DF4F39832883C85AD040CA558A
:1035B000DF4FE881F981C65AD0400082CA55DF4FFB
:1035C00028813981C65AD0402F5F3F4FCA55DF4FFF
:1035D00039832883C65AD040C655DF4F3881CA5A2E
:1035E000D0403150C655DF4F3883CA5AD040C655F7
:1035F000DF4F8881CA5AD040882321F6CE018856F1
:103600009F4FC555DF4F99838883CB5AD040E8E15F
:10361000F3E0C355DF4FF983E883CD5AD040F8E09B
:10362000C155DF4FF883CF5AD040C355DF4FE881F3
:10363000F981CD5AD0400080C355DF4F28813981B0
:10364000CD5AD0402F5F3F4FC355DF4F398328837A
:10365000CD5AD040C555DF4FE881F981CB5AD040D3
:103660000082C555DF4F28813981CB5AD0402F5F6A
:103670003F4FC555DF4F39832883CB5AD040C155C2
:10368000DF4F3881CF5AD0403150C155DF4F38839A
:10369000CF5AD040C155DF4F8881CF5AD0408823C0
:1036A00021F60C94BE2281E00E947E0B89E391E01A
:1036B0000E94B80B81E060E00E94DE0B8AE491E09A
:1036C0000E94B80B8FEF8093EC020C94B9228CEE21
:1036D00092E00E94E70D8091EC02E82FF0E0CC55DB
:1036E000DF4FF983E883C45AD040CC55DF4F28819F
:1036F0003981C45AD0402233310509F44DC4CC5528
:10370000DF4F88819981C45AD0408333910554F4A6
:10371000CC55DF4FE881F981C45AD040E133F1053F
:10372000B1F024C7CC55DF4F28813981C45AD0402D
:103730002333310509F47BC4CC55DF4F888199814F
:10374000C45AD0408433910509F474C40FC781E092
:103750000E947E0B8BE591E00E94B80B81E060E057
:103760000E94DE0B89E691E00E94B80B8FEF8093F8
:10377000EC020CC48CEE92E00E94E70D8091EC020A
:10378000E82FF0E0CE55DF4FF983E883C25AD040EE
:10379000CE55DF4F28813981C25AD04021333105BF
:1037A00009F4F4C3CE55DF4F88819981C25AD040C5
:1037B0008233910509F0E7C381E00E947E0B86E722
:1037C00091E00E94B80B81E060E00E94DE0B8FE880
:1037D00091E00E94B80B8EE00E947E0B8FEF8093E9
:1037E000EC0204C08CEE92E00E94E70D8091EC02A6
:1037F0008F3FC1F38091EC028332A1F38091EC0200
:103800008A3281F38091EC02803361F38091EC0283
:10381000805380932D038091EC020E949B0BFE014C
:10382000E757FF4F80E090E0A0EFB1E48083918301
:10383000A283B3838E010B571F4FFE01E757FF4F43
:10384000608171818281938120E030E04AE755E414
:103850000E941F02DC01CB01F80180839183A283C7
:10386000B383FE01EB57FF4F6081718182819381A9
:1038700020E030E040E85FE30E947903882344F4CD
:10388000FE01ED57FF4F81E090E09183808364C09B
:10389000FE01EB57FF4F608171818281938120E0AF
:1038A0003FEF4FE757E40E94190318160CF043C08E
:1038B000FE01E757FF4F608171818281938120E093
:1038C00030E040E251E40E941F02DC01CB018E0196
:1038D0000D571F4FBC01CD010E944900DC01CB01F7
:1038E000F801918380831FC0FE01EF57FF4F80E9ED
:1038F00091E091838083FE01EF57FF4F808191819A
:103900000197F1F7FE01EF57FF4F91838083DE01AE
:10391000AD57BF4FFE01ED57FF4F80819181019759
:1039200011969C938E93FE01ED57FF4F80819181FC
:103930000097D1F627C08E010D571F4FFE01EB57A0
:10394000FF4F60817181828193810E944900DC0177
:10395000CB01F80191838083DE01A158BF4FFE01A6
:10396000ED57FF4F808191818D939C93FE01E1582B
:10397000FF4F808191810197F1F7FE01E158FF4FE0
:10398000918380838CE00E947E0B81E00E947E0BFD
:10399000CE0180579F4F61E040E028E00E94130C69
:1039A00081E063E00E94DE0B8CE991E00E94B80B9D
:1039B000FE01E558FF4F80E090E0A8ECB2E4808380
:1039C0009183A283B3838E0109581F4FFE01E558EE
:1039D000FF4F608171818281938120E030E04AE76E
:1039E00055E40E941F02DC01CB01F8018083918322
:1039F000A283B383FE01E958FF4F60817181828108
:103A0000938120E030E040E85FE30E94790388235F
:103A100044F4FE01EB58FF4F81E090E091838083F6
:103A200064C0FE01E958FF4F6081718182819381FA
:103A300020E03FEF4FE757E40E94190318160CF0FF
:103A400043C0FE01E558FF4F6081718182819381FF
:103A500020E030E040E251E40E941F02DC01CB0193
:103A60008E010B581F4FBC01CD010E944900DC01A3
:103A7000CB01F801918380831FC0FE01ED58FF4FF9
:103A800080E991E091838083FE01ED58FF4F8081B2
:103A900091810197F1F7FE01ED58FF4F91838083EB
:103AA000DE01AB58BF4FFE01EB58FF4F8081918183
:103AB000019711969C938E93FE01EB58FF4F8081E6
:103AC00091810097D1F627C08E010B581F4FFE0140
:103AD000E958FF4F60817181828193810E94490082
:103AE000DC01CB01F80191838083DE01AF58BF4F29
:103AF000FE01EB58FF4F808191818D939C93FE01D5
:103B0000EF58FF4F808191810197F1F7FE01EF5847
:103B1000FF4F9183808381E00E94DB0580912D031C
:103B20000E94922BFE01E359FF4F80E090E0A8EC49
:103B3000B2E480839183A283B3838E0107591F4F20
:103B4000FE01E359FF4F608171818281938120E002
:103B500030E04AE755E40E941F02DC01CB01F80186
:103B600080839183A283B383FE01E759FF4F608175
:103B700071818281938120E030E040E85FE30E9420
:103B80007903882344F4FE01E959FF4F81E090E076
:103B90009183808364C0FE01E759FF4F608171818A
:103BA0008281938120E03FEF4FE757E40E941903A1
:103BB00018160CF043C0FE01E359FF4F608171817C
:103BC0008281938120E030E040E251E40E941F02B4
:103BD000DC01CB018E0109591F4FBC01CD010E94B0
:103BE0004900DC01CB01F801918380831FC0FE01F5
:103BF000EB59FF4F80E991E091838083FE01EB59FF
:103C0000FF4F808191810197F1F7FE01EB59FF4F42
:103C100091838083DE01A959BF4FFE01E959FF4F0F
:103C200080819181019711969C938E93FE01E959B1
:103C3000FF4F808191810097D1F627C08E010959ED
:103C40001F4FFE01E759FF4F60817181828193818F
:103C50000E944900DC01CB01F80191838083DE01E1
:103C6000AD59BF4FFE01E959FF4F808191818D937E
:103C70009C93FE01ED59FF4F808191810197F1F7EF
:103C8000FE01ED59FF4F9183808382E00E94DB05A6
:103C9000FE01E15AFF4F80E090E0A8ECB2E480839F
:103CA0009183A283B3838E01055A1F4FFE01E15A0F
:103CB000FF4F608171818281938120E030E04AE78B
:103CC00055E40E941F02DC01CB01F801808391833F
:103CD000A283B383FE01E55AFF4F60817181828127
:103CE000938120E030E040E85FE30E94790388237D
:103CF00044F4FE01E75AFF4F81E090E09183808316
:103D000064C0FE01E55AFF4F608171818281938119
:103D100020E03FEF4FE757E40E94190318160CF01C
:103D200043C0FE01E15AFF4F60817181828193811E
:103D300020E030E040E251E40E941F02DC01CB01B0
:103D40008E01075A1F4FBC01CD010E944900DC01C2
:103D5000CB01F801918380831FC0FE01E95AFF4F18
:103D600080E991E091838083FE01E95AFF4F8081D1
:103D700091810197F1F7FE01E95AFF4F918380830A
:103D8000DE01A75ABF4FFE01E75AFF4F80819181A4
:103D9000019711969C938E93FE01E75AFF4F808105
:103DA00091810097D1F627C08E01075A1F4FFE015F
:103DB000E55AFF4F60817181828193810E944900A1
:103DC000DC01CB01F80191838083DE01AB5ABF4F48
:103DD000FE01E75AFF4F808191818D939C93FE01F4
:103DE000EB5AFF4F808191810197F1F7FE01EB5A69
:103DF000FF4F9183808381E00E947E0B80E065E02D
:103E00000E94DE0B88EA91E00E94B80B81E062E03C
:103E10000E94DE0B8FEA91E00E94B80BFE01EF5A80
:103E2000FF4F80E090E0A8ECB2E480839183A2830E
:103E3000B3838E01035B1F4FFE01EF5AFF4F60817A
:103E400071818281938120E030E04AE755E40E944D
:103E50001F02DC01CB01F80180839183A283B3832D
:103E6000FE01E35BFF4F608171818281938120E0DD
:103E700030E040E85FE30E947903882344F4FE01C8
:103E8000E55BFF4F81E090E09183808364C0FE0199
:103E9000E35BFF4F608171818281938120E03FEF7E
:103EA0004FE757E40E94190318160CF043C0FE01B7
:103EB000EF5AFF4F608171818281938120E030E071
:103EC00040E251E40E941F02DC01CB018E01055B40
:103ED0001F4FBC01CD010E944900DC01CB01F8015C
:103EE000918380831FC0FE01E75BFF4F80E991E073
:103EF00091838083FE01E75BFF4F80819181019771
:103F0000F1F7FE01E75BFF4F91838083DE01A55B44
:103F1000BF4FFE01E55BFF4F8081918101971196B4
:103F20009C938E93FE01E55BFF4F8081918100970A
:103F3000D1F62CC08E01055B1F4FFE01E35BFF4FE6
:103F400060817181828193810E944900DC01CB01F3
:103F5000F80191838083DE01A95BBF4FFE01E55B21
:103F6000FF4F8081918111969C938E93FE01E95BB6
:103F7000FF4F808191810197F1F7FE01E95BFF4FCF
:103F80009183808303C08FEF8093EC028091EC02D9
:103F90008F3F09F4EFCBEDC281E00E947E0B8BEBEB
:103FA00091E00E94B80B81E060E00E94DE0B84EC9F
:103FB00091E00E94B80B8FEF8093EC0233C08CEE3F
:103FC00092E00E94E70D8091EC02282F30E0C0566D
:103FD000DF4F39832883C05AD040C056DF4F8881D5
:103FE0009981C05AD0408133910599F0C056DF4F76
:103FF000E881F981C05AD040E233F10569F0C0563A
:10400000DF4F28813981C05AD0402033310551F02B
:1040100006C00E94D12206C00E94BB2503C08FEFBC
:104020008093EC028091EC028F3F49F2A2C20E9481
:10403000A5289FC281E00E947E0BCE0188569F4F2B
:1040400062E040E020E00E94130C85ED91E00E94C8
:10405000B80B81E062E00E94DE0B82EE91E00E94EC
:10406000B80BFE01ED5BFF4F80E090E0A6E1B3E40A
:1040700080839183A283B3838E01015C1F4FFE0175
:10408000ED5BFF4F608171818281938120E030E0A0
:104090004AE755E40E941F02DC01CB01F80180834E
:1040A0009183A283B383FE01FF9660817181828137
:1040B000938120E030E040E85FE30E9479038823A9
:1040C0002CF481E090E09EAF8DAF46C0FE01FF96DC
:1040D000608171818281938120E03FEF4FE757E457
:1040E0000E941903181664F5FE01ED5BFF4F608115
:1040F00071818281938120E030E040E251E40E94AE
:104100001F02DC01CB01BC01CD010E944900DC0192
:10411000CB019EAF8DAF0FC080E991E09CAF8BAF1C
:104120008BAD9CAD0197F1F79CAF8BAF8DAD9EAD84
:1041300001979EAF8DAF8DAD9EAD009769F716C00C
:10414000FE01FF9660817181828193810E94490006
:10415000DC01CB019EAF8DAF8DAD9EAD9AAF89AF27
:1041600089AD9AAD0197F1F79AAF89AF81E00E94CE
:104170007E0B8AEE91E00E94B80B8FED0E949B0BA4
:1041800080E00E942D2CFE01E357FF4F80838FE8D3
:104190000E94DB0580E090E0A8ECB2E48DAB9EAB22
:1041A000AFABB8AF6DA97EA98FA998AD20E030E084
:1041B0004AE755E40E941F02DC01CB0189AB9AABB0
:1041C000ABABBCAB69A97AA98BA99CA920E030E074
:1041D00040E85FE30E94790388232CF481E090E0BB
:1041E00098AB8FA73FC069A97AA98BA99CA920E0A9
:1041F0003FEF4FE757E40E94190318164CF56DA9DD
:104200007EA98FA998AD20E030E040E251E40E9401
:104210001F02DC01CB01BC01CD010E944900DC0181
:10422000CB0198AB8FA70FC080E991E09EA78DA727
:104230008DA59EA50197F1F79EA78DA78FA598A99B
:10424000019798AB8FA78FA598A9009769F714C01D
:1042500069A97AA98BA99CA90E944900DC01CB011C
:1042600098AB8FA78FA598A99CA78BA78BA59CA57A
:104270000197F1F79CA78BA7FE01E357FF4F8081C1
:10428000805D0E94DB0580E090E0A8ECB2E48FA3A3
:1042900098A7A9A7BAA76FA178A589A59AA520E094
:1042A00030E04AE755E40E941F02DC01CB018BA3FA
:1042B0009CA3ADA3BEA36BA17CA18DA19EA120E078
:1042C00030E040E85FE30E94790388232CF481E02A
:1042D00090E09AA389A33FC06BA17CA18DA19EA170
:1042E00020E03FEF4FE757E40E94190318164CF502
:1042F0006FA178A589A59AA520E030E040E251E4BD
:104300000E941F02DC01CB01BC01CD010E944900CB
:10431000DC01CB019AA389A30FC080E991E098A3A7
:104320008F8F8F8D98A10197F1F798A38F8F89A117
:104330009AA101979AA389A389A19AA1009769F7E5
:1043400014C06BA17CA18DA19EA10E944900DC013B
:10435000CB019AA389A389A19AA19E8F8D8F8D8D60
:104360009E8D0197F1F79E8F8D8F81E060E00E9416
:10437000DE0B8AEF91E00E94B80B8FED0E949B0B41
:1043800081E00E942D2CFE01E257FF4F80838FE9D0
:104390000E94DB0580E090E0A8ECB2E4898F9A8F60
:1043A000AB8FBC8F698D7A8D8B8D9C8D20E030E03A
:1043B0004AE755E40E941F02DC01CB018D8B9E8BE6
:1043C000AF8BB88F6D897E898F89988D20E030E022
:1043D00040E85FE30E94790388232CF481E090E0B9
:1043E0009C8B8B8B3FC06D897E898F89988D20E057
:1043F0003FEF4FE757E40E94190318164CF5698DFB
:104400007A8D8B8D9C8D20E030E040E251E40E945B
:104410001F02DC01CB01BC01CD010E944900DC017F
:10442000CB019C8B8B8B0FC080E991E09A8B898BA1
:1044300089899A890197F1F79A8B898B8B899C8955
:1044400001979C8B8B8B8B899C89009769F714C093
:104450006D897E898F89988D0E944900DC01CB018E
:104460009C8B8B8B8B899C89988B8F878F85988968
:104470000197F1F7988B8F87FE01E257FF4F8081FC
:10448000805D0E94DB0580E090E0A8ECB2E48B87C1
:104490009C87AD87BE876B857C858D859E8520E05A
:1044A00030E04AE755E40E941F02DC01CB018F8314
:1044B0009887A987BA876F81788589859A8520E052
:1044C00030E040E85FE30E94790388232CF481E028
:1044D00090E09E838D833FC06F81788589859A8522
:1044E00020E03FEF4FE757E40E94190318164CF500
:1044F0006B857C858D859E8520E030E040E251E42F
:104500000E941F02DC01CB01BC01CD010E944900C9
:10451000DC01CB019E838D830FC080E991E09C83F9
:104520008B838B819C810197F1F79C838B838D8199
:104530009E8101979E838D838D819E81009769F76F
:1045400018C06F81788589859A850E944900DC01B1
:10455000CB019E838D838D819E819A8389838981FE
:104560009A810197F1F79A83898303C08FEF809333
:10457000EC028091EC028F3F09F4A9C8FE01E157DB
:10458000FF4F8081882309F48EC8C155DF4F0FB6D5
:10459000F894DEBF0FBECDBFCF91DF911F910F9179
:1045A00008950F931F93DF93CF93CDB7DEB7C85411
:1045B000D0400FB6F894DEBF0FBECDBF81E00E94A1
:1045C0007E0B83E00E94DB05FE01ED5BFF4F80E088
:1045D00090E0A8E4B2E480839183A283B3838E0148
:1045E000015C1F4FFE01ED5BFF4F60817181828195
:1045F000938120E030E04AE755E40E941F02DC018D
:10460000CB01F80180839183A283B383FE01FF96DF
:10461000608171818281938120E030E040E85FE336
:104620000E94790388232CF481E090E09EAF8DAF47
:1046300046C0FE01FF96608171818281938120E0F6
:104640003FEF4FE757E40E941903181664F5FE0187
:10465000ED5BFF4F608171818281938120E030E0CA
:1046600040E251E40E941F02DC01CB01BC01CD01FC
:104670000E944900DC01CB019EAF8DAF0FC080E9E5
:1046800091E09CAF8BAF8BAD9CAD0197F1F79CAFE8
:104690008BAF8DAD9EAD01979EAF8DAF8DAD9EADB5
:1046A000009769F716C0FE01FF96608171818281D3
:1046B00093810E944900DC01CB019EAF8DAF8DAD8F
:1046C0009EAD9AAF89AF89AD9AAD0197F1F79AAFD8
:1046D00089AF8FEF0E94DB058093EB028091EB02A4
:1046E000853029F48AE092E00E94B80B08C08091DE
:1046F000EB02843021F485E192E00E94B80B81E066
:1047000060E00E94DE0B86E00E94DB0580E090E026
:10471000A8E4B2E48DAB9EABAFABB8AF6DA97EA9F8
:104720008FA998AD20E030E04AE755E40E941F02CF
:10473000DC01CB0189AB9AABABABBCAB69A97AA965
:104740008BA99CA920E030E040E85FE30E94790358
:1047500088232CF481E090E098AB8FA73FC069A933
:104760007AA98BA99CA920E03FEF4FE757E40E946C
:10477000190318164CF56DA97EA98FA998AD20E0F4
:1047800030E040E251E40E941F02DC01CB01BC0199
:10479000CD010E944900DC01CB0198AB8FA70FC06F
:1047A00080E991E09EA78DA78DA59EA50197F1F7C1
:1047B0009EA78DA78FA598A9019798AB8FA78FA5C6
:1047C00098A9009769F714C069A97AA98BA99CA92F
:1047D0000E944900DC01CB0198AB8FA78FA598A957
:1047E0009CA78BA78BA59CA50197F1F79CA78BA7EE
:1047F0008FEF0E94DB058093EB028091EB02883003
:1048000029F480E292E00E94B80B08C08091EB028C
:10481000873021F488E292E00E94B80B80E090E0BB
:10482000A8ECB2E48FA398A7A9A7BAA76FA178A50F
:1048300089A59AA520E030E04AE755E40E941F02CE
:10484000DC01CB018BA39CA3ADA3BEA36BA17CA178
:104850008DA19EA120E030E040E85FE30E94790353
:1048600088232CF481E090E09AA389A33FC06BA138
:104870007CA18DA19EA120E03FEF4FE757E40E946D
:10488000190318164CF56FA178A589A59AA520E003
:1048900030E040E251E40E941F02DC01CB01BC0188
:1048A000CD010E944900DC01CB019AA389A30FC06E
:1048B00080E991E098A38F8F8F8D98A10197F1F7F0
:1048C00098A38F8F89A19AA101979AA389A389A1FF
:1048D0009AA1009769F714C06BA17CA18DA19EA13C
:1048E0000E944900DC01CB019AA389A389A19AA166
:1048F0009E8F8D8F8D8D9E8D0197F1F79E8F8D8F61
:1049000081E00E947E0B8FE292E00E94B80B81E072
:104910006AE00E94DE0B80E492E00E94B80B8FEF09
:104920008093EC0217C18CEE92E00E94E70D80911B
:10493000EC02282F30E029963FAF2EAF2997299619
:104940008EAD9FAD29978133910589F02996EEAD03
:10495000FFAD2997E233F10509F481C029962EAD08
:104960003FAD29972033310509F4F4C0F0C08FE042
:104970000E94DB0580E090E0A8E4B2E4898F9A8F82
:10498000AB8FBC8F698D7A8D8B8D9C8D20E030E054
:104990004AE755E40E941F02DC01CB018D8B9E8B00
:1049A000AF8BB88F6D897E898F89988D20E030E03C
:1049B00040E85FE30E94790388232CF481E090E0D3
:1049C0009C8B8B8B3FC06D897E898F89988D20E071
:1049D0003FEF4FE757E40E94190318164CF5698D15
:1049E0007A8D8B8D9C8D20E030E040E251E40E9476
:1049F0001F02DC01CB01BC01CD010E944900DC019A
:104A0000CB019C8B8B8B0FC080E991E09A8B898BBB
:104A100089899A890197F1F79A8B898B8B899C896F
:104A200001979C8B8B8B8B899C89009769F714C0AD
:104A30006D897E898F89988D0E944900DC01CB01A8
:104A40009C8B8B8B8B899C89988B8F878F85988982
:104A50000197F1F7988B8F870E94D1227BC08FE15D
:104A60000E94DB0580E090E0A8E4B2E48B879C879D
:104A7000AD87BE876B857C858D859E8520E030E087
:104A80004AE755E40E941F02DC01CB018F8398871F
:104A9000A987BA876F81788589859A8520E030E07B
:104AA00040E85FE30E94790388232CF481E090E0E2
:104AB0009E838D833FC06F81788589859A8520E0AC
:104AC0003FEF4FE757E40E94190318164CF56B852A
:104AD0007C858D859E8520E030E040E251E40E9497
:104AE0001F02DC01CB01BC01CD010E944900DC01A9
:104AF000CB019E838D830FC080E991E09C838B83E3
:104B00008B819C810197F1F79C838B838D819E81A2
:104B100001979E838D838D819E81009769F714C0D4
:104B20006F81788589859A850E944900DC01CB01D7
:104B30009E838D838D819E819A83898389819A81C9
:104B40000197F1F79A8389830E94D12203C08FEFE6
:104B50008093EC028091EC028F3F09F4E4CEC85BB5
:104B6000DF4F0FB6F894DEBF0FBECDBFCF91DF9100
:104B70001F910F9108950F931F93DF93CF93CDB79C
:104B8000DEB7C854D0400FB6F894DEBF0FBECDBF1D
:104B900081E00E947E0B89E00E94DB05FE01ED5B57
:104BA000FF4F80E090E0A8E4B2E480839183A28389
:104BB000B3838E01015C1F4FFE01ED5BFF4F6081EF
:104BC00071818281938120E030E04AE755E40E94C0
:104BD0001F02DC01CB01F80180839183A283B383A0
:104BE000FE01FF96608171818281938120E030E037
:104BF00040E85FE30E94790388232CF481E090E091
:104C00009EAF8DAF46C0FE01FF96608171818281AB
:104C1000938120E03FEF4FE757E40E9419031816F5
:104C200064F5FE01ED5BFF4F6081718182819381AC
:104C300020E030E040E251E40E941F02DC01CB01A1
:104C4000BC01CD010E944900DC01CB019EAF8DAFBC
:104C50000FC080E991E09CAF8BAF8BAD9CAD01970D
:104C6000F1F79CAF8BAF8DAD9EAD01979EAF8DAF31
:104C70008DAD9EAD009769F716C0FE01FF9660816D
:104C80007181828193810E944900DC01CB019EAF3A
:104C90008DAF8DAD9EAD9AAF89AF89AD9AAD0197BD
:104CA000F1F79AAF89AF8FEF0E94DB058093EB029B
:104CB0008091EB028B3029F48AE092E00E94B80BDD
:104CC00008C08091EB028A3021F485E192E00E94D5
:104CD000B80B81E060E00E94DE0B8CE00E94DB05F7
:104CE00080E090E0A8E4B2E48DAB9EABAFABB8AF90
:104CF0006DA97EA98FA998AD20E030E04AE755E480
:104D00000E941F02DC01CB0189AB9AABABABBCAB01
:104D100069A97AA98BA99CA920E030E040E85FE36B
:104D20000E94790388232CF481E090E098AB8FA750
:104D30003FC069A97AA98BA99CA920E03FEF4FE762
:104D400057E40E94190318164CF56DA97EA98FA986
:104D500098AD20E030E040E251E40E941F02DC0107
:104D6000CB01BC01CD010E944900DC01CB0198AB15
:104D70008FA70FC080E991E09EA78DA78DA59EA566
:104D80000197F1F79EA78DA78FA598A9019798ABDA
:104D90008FA78FA598A9009769F714C069A97AA968
:104DA0008BA99CA90E944900DC01CB0198AB8FA77D
:104DB0008FA598A99CA78BA78BA59CA50197F1F718
:104DC0009CA78BA78FEF0E94DB058093EB0280915D
:104DD000EB028E3029F480E292E00E94B80B08C00A
:104DE0008091EB028D3021F488E292E00E94B80BB2
:104DF00080E090E0A8ECB2E48FA398A7A9A7BAA797
:104E00006FA178A589A59AA520E030E04AE755E48E
:104E10000E941F02DC01CB018BA39CA3ADA3BEA308
:104E20006BA17CA18DA19EA120E030E040E85FE372
:104E30000E94790388232CF481E090E09AA389A34F
:104E40003FC06BA17CA18DA19EA120E03FEF4FE769
:104E500057E40E94190318164CF56FA178A589A58F
:104E60009AA520E030E040E251E40E941F02DC01FC
:104E7000CB01BC01CD010E944900DC01CB019AA30A
:104E800089A30FC080E991E098A38F8F8F8D98A19F
:104E90000197F1F798A38F8F89A19AA101979AA3FF
:104EA00089A389A19AA1009769F714C06BA17CA17D
:104EB0008DA19EA10E944900DC01CB019AA389A388
:104EC00089A19AA19E8F8D8F8D8D9E8D0197F1F76F
:104ED0009E8F8D8F81E00E947E0B8FE292E00E9478
:104EE000B80B81E06AE00E94DE0B80E492E00E9451
:104EF000B80B8FEF8093EC0217C18CEE92E00E940A
:104F0000E70D8091EC02282F30E029963FAF2EAFBD
:104F1000299729968EAD9FAD29978133910589F008
:104F20002996EEADFFAD2997E233F10509F481C072
:104F300029962EAD3FAD29972033310509F4F4C0F1
:104F4000F0C08FE20E94DB0580E090E0A8E4B2E4CC
:104F5000898F9A8FAB8FBC8F698D7A8D8B8D9C8D4D
:104F600020E030E04AE755E40E941F02DC01CB015B
:104F70008D8B9E8BAF8BB88F6D897E898F89988D35
:104F800020E030E040E85FE30E94790388232CF4BE
:104F900081E090E09C8B8B8B3FC06D897E898F89EF
:104FA000988D20E03FEF4FE757E40E941903181651
:104FB0004CF5698D7A8D8B8D9C8D20E030E040E240
:104FC00051E40E941F02DC01CB01BC01CD010E9413
:104FD0004900DC01CB019C8B8B8B0FC080E991E0F9
:104FE0009A8B898B89899A890197F1F79A8B898B9A
:104FF0008B899C8901979C8B8B8B8B899C890097D3
:1050000069F714C06D897E898F89988D0E94490047
:10501000DC01CB019C8B8B8B8B899C89988B8F8738
:105020008F8598890197F1F7988B8F870E94D122FD
:105030007BC08FE30E94DB0580E090E0A8E4B2E44F
:105040008B879C87AD87BE876B857C858D859E858C
:1050500020E030E04AE755E40E941F02DC01CB016A
:105060008F839887A987BA876F81788589859A8584
:1050700020E030E040E85FE30E94790388232CF4CD
:1050800081E090E09E838D833FC06F817885898524
:105090009A8520E03FEF4FE757E40E941903181666
:1050A0004CF56B857C858D859E8520E030E040E267
:1050B00051E40E941F02DC01CB01BC01CD010E9422
:1050C0004900DC01CB019E838D830FC080E991E014
:1050D0009C838B838B819C810197F1F79C838B83CD
:1050E0008D819E8101979E838D838D819E81009706
:1050F00069F714C06F81788589859A850E94490077
:10510000DC01CB019E838D838D819E819A8389836F
:1051100089819A810197F1F79A8389830E94D1222C
:1051200003C08FEF8093EC028091EC028F3F09F473
:10513000E4CEC85BDF4F0FB6F894DEBF0FBECDBF25
:10514000CF91DF911F910F9108950F931F93DF93DC
:10515000CF93CDB7DEB7C854D0400FB6F894DEBFBA
:105160000FBECDBF81E00E947E0B87E492E00E94DB
:10517000B80B81E06AE00E94DE0B80E492E00E94BE
:10518000B80B8FEF8093EC02BCC28CEE92E00E94D1
:10519000E70D8091EC02282F30E029963FAF2EAF2B
:1051A000299729968EAD9FAD29978133910589F076
:1051B0002996EEADFFAD2997E233F10509F413C14D
:1051C00029962EAD3FAD29972033310509F499C2B8
:1051D00095C28FE40E94DB05FE01ED5BFF4F80E08E
:1051E00090E0A8E4B2E480839183A283B3838E012C
:1051F000015C1F4FFE01ED5BFF4F60817181828179
:10520000938120E030E04AE755E40E941F02DC0170
:10521000CB01F80180839183A283B383FE01FF96C3
:10522000608171818281938120E030E040E85FE31A
:105230000E94790388232CF481E090E09EAF8DAF2B
:1052400046C0FE01FF96608171818281938120E0DA
:105250003FEF4FE757E40E941903181664F5FE016B
:10526000ED5BFF4F608171818281938120E030E0AE
:1052700040E251E40E941F02DC01CB01BC01CD01E0
:105280000E944900DC01CB019EAF8DAF0FC080E9C9
:1052900091E09CAF8BAF8BAD9CAD0197F1F79CAFCC
:1052A0008BAF8DAD9EAD01979EAF8DAF8DAD9EAD99
:1052B000009769F716C0FE01FF96608171818281B7
:1052C00093810E944900DC01CB019EAF8DAF8DAD73
:1052D0009EAD9AAF89AF89AD9AAD0197F1F79AAFBC
:1052E00089AF81E00E947E0B88E592E00E94B80BB6
:1052F00081E067E00E94DE0B89E692E00E94B80B35
:1053000080E090E0A8ECB2E48DAB9EABAFABB8AF61
:105310006DA97EA98FA998AD20E030E04AE755E459
:105320000E941F02DC01CB0189AB9AABABABBCABDB
:1053300069A97AA98BA99CA920E030E040E85FE345
:105340000E94790388232CF481E090E098AB8FA72A
:105350003FC069A97AA98BA99CA920E03FEF4FE73C
:1053600057E40E94190318164CF56DA97EA98FA960
:1053700098AD20E030E040E251E40E941F02DC01E1
:10538000CB01BC01CD010E944900DC01CB0198ABEF
:105390008FA70FC080E991E09EA78DA78DA59EA540
:1053A0000197F1F79EA78DA78FA598A9019798ABB4
:1053B0008FA78FA598A9009769F7A3C169A97AA9B2
:1053C0008BA99CA90E944900DC01CB0198AB8FA757
:1053D0008FA598A99CA78BA78BA59CA50197F1F7F2
:1053E0009CA78BA78EC18FE50E94DB0580E090E033
:1053F000A8E4B2E48FA398A7A9A7BAA76FA178A53C
:1054000089A59AA520E030E04AE755E40E941F02F2
:10541000DC01CB018BA39CA3ADA3BEA36BA17CA19C
:105420008DA19EA120E030E040E85FE30E94790377
:1054300088232CF481E090E09AA389A33FC06BA15C
:105440007CA18DA19EA120E03FEF4FE757E40E9491
:10545000190318164CF56FA178A589A59AA520E027
:1054600030E040E251E40E941F02DC01CB01BC01AC
:10547000CD010E944900DC01CB019AA389A30FC092
:1054800080E991E098A38F8F8F8D98A10197F1F714
:1054900098A38F8F89A19AA101979AA389A389A123
:1054A0009AA1009769F714C06BA17CA18DA19EA160
:1054B0000E944900DC01CB019AA389A389A19AA18A
:1054C0009E8F8D8F8D8D9E8D0197F1F79E8F8D8F85
:1054D00081E00E947E0B8EE692E00E94B80B81E094
:1054E00060E00E94DE0B8CE792E00E94B80B8FEF29
:1054F0008093EC02FDC08CEE92E00E94E70D80915B
:10550000EC02813309F076C08FE60E94DB0580E073
:1055100090E0A8E4B2E4898F9A8FAB8FBC8F698D3D
:105520007A8D8B8D9C8D20E030E04AE755E40E9417
:105530001F02DC01CB018D8B9E8BAF8BB88F6D89E9
:105540007E898F89988D20E030E040E85FE30E94FB
:10555000790388232CF481E090E09C8B8B8B3FC0F7
:105560006D897E898F89988D20E03FEF4FE757E462
:105570000E94190318164CF5698D7A8D8B8D9C8DC0
:1055800020E030E040E251E40E941F02DC01CB0148
:10559000BC01CD010E944900DC01CB019C8B8B8BAF
:1055A0000FC080E991E09A8B898B89899A8901974C
:1055B000F1F79A8B898B8B899C8901979C8B8B8BBC
:1055C0008B899C89009769F793C06D897E898F8943
:1055D000988D0E944900DC01CB019C8B8B8B8B89C1
:1055E0009C89988B8F878F8598890197F1F7988B85
:1055F0008F877EC08091EC02823309F076C08FE7FE
:105600000E94DB0580E090E0A8E4B2E48B879C87F1
:10561000AD87BE876B857C858D859E8520E030E0DB
:105620004AE755E40E941F02DC01CB018F83988773
:10563000A987BA876F81788589859A8520E030E0CF
:1056400040E85FE30E94790388232CF481E090E036
:105650009E838D833FC06F81788589859A8520E000
:105660003FEF4FE757E40E94190318164CF56B857E
:105670007C858D859E8520E030E040E251E40E94EB
:105680001F02DC01CB01BC01CD010E944900DC01FD
:10569000CB019E838D830FC080E991E09C838B8337
:1056A0008B819C810197F1F79C838B838D819E81F7
:1056B00001979E838D838D819E81009769F718C025
:1056C0006F81788589859A850E944900DC01CB012C
:1056D0009E838D838D819E819A83898389819A811E
:1056E0000197F1F79A83898303C08FEF8093EC02CF
:1056F0008091EC028F3F09F4FECE03C08FEF8093C0
:10570000EC028091EC028F3F09F43FCDC85BDF4F84
:105710000FB6F894DEBF0FBECDBFCF91DF911F91C2
:105720000F910895DF93CF9300D0CDB7DEB78A8372
:105730008A81898381E00E947E0B80E064E00E9480
:10574000DE0B8BE892E00E94B80B80E067E00E94DD
:10575000DE0B89810E94D60C80E06AE00E94DE0B9D
:1057600080E30E949B0B80E06BE340E00E942206F6
:1057700010C01092ED0289818150898380E067E03A
:105780000E94DE0B89810E94D60C8091ED0281304F
:10579000E1F799818A81891718F08981882349F76F
:1057A00081E060E00E94DE0B82E992E00E94B80B8B
:1057B0000F900F90CF91DF9108951F920F920FB627
:1057C0000F9211242F933F934F935F936F937F9387
:1057D0008F939F93AF93BF93EF93FF93DF93CF93F9
:1057E000CDB7DEB780E06AE00E94DE0B90912A031D
:1057F0008BE3891B0E94D60C80912A038F5F8093D4
:105800002A0380912A038C33A9F410922A0381E0A1
:105810008093ED02809129038F5F809329039091FB
:10582000290380912D03981729F480E00E944806EF
:1058300010922903CF91DF91FF91EF91BF91AF912A
:105840009F918F917F916F915F914F913F912F9198
:105850000F900FBE0F901F901895DF93CF93CDB789
:10586000DEB762970FB6F894DEBF0FBECDBF8A8B4E
:105870008FEF8093EC028A89882329F480E06DE021
:105880000E94DE0B07C08A89813021F481E06DE03F
:105890000E94DE0B8EE00E947E0B1F8697C08FEF6A
:1058A0008093EC0204C08CEE92E00E94E70D8091A0
:1058B000EC028F3FC1F38091EC028332A1F380911F
:1058C000EC028A3281F38091EC020E949B0B80E013
:1058D00090E0A8E4B2E48B879C87AD87BE876B8598
:1058E0007C858D859E8520E030E04AE755E40E9466
:1058F0001F02DC01CB018F839887A987BA876F814C
:10590000788589859A8520E030E040E85FE30E9451
:10591000790388232CF481E090E09E838D833FC03F
:105920006F81788589859A8520E03FEF4FE757E4BE
:105930000E94190318164CF56B857C858D859E8514
:1059400020E030E040E251E40E941F02DC01CB0184
:10595000BC01CD010E944900DC01CB019E838D83F7
:105960000FC080E991E09C838B838B819C810197A0
:10597000F1F79C838B838D819E8101979E838D831C
:105980008D819E81009769F714C06F817885898524
:105990009A850E944900DC01CB019E838D838D8115
:1059A0009E819A83898389819A810197F1F79A83ED
:1059B00089838F85882321F48091EC02898B03C031
:1059C0008091EC02888B8F858F5F8F878F858230E7
:1059D00008F465CF8CE00E947E0B8989882F90E0C7
:1059E0009C01220F331FC901880F991F880F991F2F
:1059F000820F931F982F8889890F62960FB6F894AB
:105A0000DEBF0FBECDBFCF91DF9108950F931F93DF
:105A1000DF93CF93CDB7DEB7CA54D0400FB6F8941A
:105A2000DEBF0FBECDBFFE01E95BFF4F8FEF80836E
:105A3000FE01E85BFF4F8FEF808381E00E947E0BC9
:105A400089E00E94DB05FE01ED5BFF4F80E090E006
:105A5000A8E4B2E480839183A283B3838E01015CC6
:105A60001F4FFE01ED5BFF4F608171818281938149
:105A700020E030E04AE755E40E941F02DC01CB0140
:105A8000F80180839183A283B383FE01FF96608136
:105A900071818281938120E030E040E85FE30E94E1
:105AA000790388232CF481E090E09EAF8DAF46C04F
:105AB000FE01FF96608171818281938120E03FEF3A
:105AC0004FE757E40E941903181664F5FE01ED5BD9
:105AD000FF4F608171818281938120E030E040E25C
